:020000040800F2
:100000000050002031550008F54D0008F74D00085C
:10001000F94D0008FB4D0008FD4D000800000000F0
:10002000000000000000000000000000FF4D00087C
:10003000014E000800000000034E0008054E0008B5
:100040007955000879550008795500087955000858
:100050007955000879550008795500087955000848
:100060007955000879550008795500080D4E0008AB
:100070007955000879550008795500087955000828
:1000800079550008795500081D4E0008795500087B
:100090007955000879550008795500087955000808
:1000A00079550008795500087955000879550008F8
:1000B00079550008795500087955000879550008E8
:1000C00079550008795500087955000879550008D8
:1000D00079550008354E0008795500087955000813
:1000E000795500087955000879550008000000008E
:1000F0000000000000000000000000000000000000
:0C01000000000000000000005FF808F1A3
:10010C0010B5054C237833B9044B13B10448AFF345
:10011C0000800123237010BD80000020000000002F
:10012C00AC58000808B5034B1BB103490348AFF3A7
:10013C00008008BD0000000084000020AC580008BE
:10014C0080F0004002E000BF81F0004142001FBF80
:10015C005FEA410392EA030F7FEA226C7FEA236C89
:10016C006AD04FEA1262D2EB1363C1BFD21841407E
:10017C0048404140B8BF5B42192B88BF704710F014
:10018C00004F40F4000020F07F4018BF404211F0B7
:10019C00004F41F4000121F07F4118BF494292EA1F
:1001AC00030F3FD0A2F1010241FA03FC10EB0C004B
:1001BC00C3F1200301FA03F100F0004302D54942D8
:1001CC0060EB4000B0F5000F13D3B0F1807F06D385
:1001DC0040084FEA310102F10102FE2A51D2B1F17D
:1001EC00004F40EBC25008BF20F0010040EA030072
:1001FC007047490040EB000010F4000FA2F101021F
:10020C00EDD1B0FA80FCACF1080CB2EB0C0200FAA8
:10021C000CF0AABF00EBC25052421843BCBFD040F6
:10022C001843704792F0000F81F4000106BF80F470
:10023C0000000132013BB5E74FEA41037FEA226C33
:10024C0018BF7FEA236C21D092EA030F04D092F0FE
:10025C00000F08BF0846704790EA010F1CBF002032
:10026C00704712F07F4F04D1400028BF40F000408F
:10027C00704712F100723CBF00F50000704700F0AF
:10028C00004343F0FE4040F4000070477FEA2262D6
:10029C0016BF08467FEA23630146420206BF5FEAA7
:1002AC00412390EA010F40F4800070474FF00003A7
:1002BC0004E000BF10F0004348BF40425FEA000C6E
:1002CC0008BF704743F0964301464FF000001CE016
:1002DC0050EA010208BF70474FF000030AE000BF6C
:1002EC0050EA010208BF704711F0004302D54042AA
:1002FC0061EB41015FEA010C02BF8446014600201C
:10030C0043F0B64308BFA3F18053A3F50003BCFA36
:10031C008CF2083AA3EBC25310DB01FA02FC6344E3
:10032C0000FA02FCC2F12002BCF1004F20FA02F2EA
:10033C0043EB020008BF20F00100704702F12002DD
:10034C0001FA02FCC2F1200250EA4C0021FA02F23E
:10035C0043EB020008BF20EADC7070474FF0FF0C43
:10036C001CEAD0521EBF1CEAD15392EA0C0F93EA3E
:10037C000C0F6FD01A4480EA010C400218BF5FEAE0
:10038C0041211ED04FF0006343EA501043EA511153
:10039C00A0FB01310CF00040B1F5000F3EBF49004D
:1003AC0041EAD3715B0040EA010062F17F02FD2A51
:1003BC001DD8B3F1004F40EBC25008BF20F0010034
:1003CC00704790F0000F0CF0004C08BF49024CEA4B
:1003DC00502040EA51207F3AC2BFD2F1FF0340EADD
:1003EC00C250704740F400004FF00003013A5DDC4E
:1003FC0012F1190FDCBF00F000407047C2F100028F
:10040C00410021FA02F1C2F1200200FA02FC5FEA7B
:10041C00310040F1000053EA4C0308BF20EADC70C5
:10042C00704792F0000F00F0004C02BF400010F437
:10043C00000F013AF9D040EA0C0093F0000F01F0E4
:10044C00004C02BF490011F4000F013BF9D041EA06
:10045C000C018FE70CEAD15392EA0C0F18BF93EA08
:10046C000C0F0AD030F0004C18BF31F0004CD8D132
:10047C0080EA010000F00040704790F0000F17BFB9
:10048C0090F0004F084691F0000F91F0004F14D0FF
:10049C0092EA0C0F01D142020FD193EA0C0F03D157
:1004AC004B0218BF084608D180EA010000F000405A
:1004BC0040F0FE4040F40000704740F0FE4040F435
:1004CC00400070474FF0FF0C1CEAD0521EBF1CEAD4
:1004DC00D15392EA0C0F93EA0C0F69D0A2EB0302F2
:1004EC0080EA010C49024FEA402037D04FF080538C
:1004FC0043EA111143EA10130CF000408B4238BF51
:10050C005B0042F17D024FF4000C8B4224BF5B1A5E
:10051C0040EA0C00B3EB510F24BFA3EB510340EAAC
:10052C005C00B3EB910F24BFA3EB910340EA9C005A
:10053C00B3EBD10F24BFA3EBD10340EADC001B01CA
:10054C0018BF5FEA1C1CE0D1FD2A3FF650AF8B426E
:10055C0040EBC25008BF20F0010070470CF0004C7B
:10056C004CEA50207F32C2BFD2F1FF0340EAC250A6
:10057C00704740F400004FF00003013A37E792F067
:10058C00000F00F0004C02BF400010F4000F013AC5
:10059C00F9D040EA0C0093F0000F01F0004C02BFC0
:1005AC00490011F4000F013BF9D041EA0C0195E729
:1005BC000CEAD15392EA0C0F08D142027FF47DAFC2
:1005CC0093EA0C0F7FF470AF084676E793EA0C0FB2
:1005DC0004D14B023FF44CAF08466EE730F0004CB0
:1005EC0018BF31F0004CCAD130F000427FF45CAF40
:1005FC0031F000437FF43CAF5FE700BF4FEA4002AD
:10060C00B2F1FE4F0FD34FF09E03B3EB12620DD934
:10061C004FEA002343F0004310F0004F23FA02F09E
:10062C0018BF404270474FF00000704712F1610F45
:10063C0001D1420205D110F0004008BF6FF000401C
:10064C0070474FF00000704710B504460E4B1878F9
:10065C004FF47A73B3FBF0F30C4A1068B0FBF3F071
:10066C0000F034FD68B90F2C01D901200AE00022FA
:10067C0021464FF0FF3000F0E7FC054B1C600020DA
:10068C0000E0012010BD00BF000000200C00002085
:10069C000400002008B5074A136843F010031360E8
:1006AC00032000F0BFFC0120FFF7CEFF04F05EFA40
:1006BC00002008BD00200240034A1168034B1B7840
:1006CC000B441360704700BFDC01002000000020C9
:1006DC00014B1868704700BFDC01002038B5044698
:1006EC00FFF7F6FF0546B4F1FF3F02D0044B1B7831
:1006FC001C44FFF7EDFF401BA042FAD338BD00BFEE
:10070C0000000020F0B583B005460C460023019391
:10071C00FFF7DEFF2B689A6812F4807F23D1064620
:10072C005A6812F4807F03D1DB6A13F4700F24D063
:10073C004B4B1F68022001F06DFCB7FBF0F02B68EF
:10074C001969484A11422FD1D96802F15C42114211
:10075C002AD11969444A114239D1DA68434B1A42F9
:10076C0037D029273AE0AB6A43F02003AB62002371
:10077C0085F82430012003B0F0BD2B681B6813F002
:10078C00020F48D1B4F1FF3FF7D024B1FFF7A0FF1F
:10079C00801BA042F1D9AB6A43F00403AB62002387
:1007AC0085F824300320E6E719692F4A114204D159
:1007BC00D96802F16E4211420DD019692C4A0A40D7
:1007CC005AB9DA682A4B13405BB1FC2706E029279B
:1007DC0004E0142702E0542700E0FC2707FB00F795
:1007EC0004E05427FAE7019B01330193019BBB42C0
:1007FC0011D2B4F1FF3FF6D024B1FFF769FF801B93
:10080C00A042F0D9AB6A43F00403AB62002385F835
:10081C0024300320AFE72B686FF012021A60AB6A2A
:10082C0043F40073AB622B689B6803F46023B3F54D
:10083C00602F01D000209EE72B7B6BB9AB6A23F4B1
:10084C008073AB62AB6A13F4805F07D1AB6A43F081
:10085C000103AB6200208EE700208CE700208AE7C2
:10086C000C0000202449922492244912922449001D
:10087C00499224000368D86C704708B5436A9A6A99
:10088C0012F0500F03D01B6A1B6B984708BD9A6A75
:10089C0042F400729A621A68926802F46022B2F50D
:1008AC00602F03D0184604F079FCEFE71A7B002A7E
:1008BC00F8D19A6A22F480729A629A6A12F4805F72
:1008CC00F0D19A6A42F001029A62EBE708B5406AED
:1008DC0004F0C4FB08BD704710B5044603685A68A1
:1008EC0012F0200F18D01A6812F0020F14D0826A7E
:1008FC0012F0100F03D1826A42F4007282629A687D
:10090C0002F46022B2F5602F38D0204604F046FC89
:10091C0023686FF012021A6023685A6812F0800F75
:10092C0022D01A6812F0040F1ED0A26A12F0100F17
:10093C0003D1A26A42F40052A2629A6802F4E04225
:10094C00B2F5E04F31D05A6812F4806F05D19A6835
:10095C0002F46022B2F5602F24D0204600F060FB38
:10096C0023686FF00C021A6023685A6812F0400F6B
:10097C0003D01B6813F0010F28D110BD227B002A75
:10098C00C3D15A6822F020025A60A36A23F4807300
:10099C00A362A36A13F4805FB7D1A36A43F0010387
:1009AC00A362B2E7227B002AD7D15A6822F08002D8
:1009BC005A60A36A23F48053A362A36A13F4807F62
:1009CC00CBD1A36A43F00103A362C6E7A36A43F445
:1009DC008033A3622046FFF77EFF23686FF001028D
:1009EC001A60CAE7704708B5406A836A43F040034F
:1009FC008362C36A43F00403C362FFF7F3FF08BDCD
:100A0C0030B482B00023019390F82430012B00F015
:100A1C008B800246012380F824304B68062B29D8A2
:100A2C000568686B03EB8303053B1F249C4020EA9D
:100A3C0004000C6804FA03F303436B630B68092B83
:100A4C0038D91568E86803EB43031E3B07249C4028
:100A5C0020EA04008C6804FA03F30343EB600B6890
:100A6C00103B012B34D90020002382F8243002B033
:100A7C0030BC70470C2B0ED80568286B03EB830336
:100A8C00233B1F249C4020EA04000C6804FA03F367
:100A9C0003432B63D2E70568E86A03EB8303413B0E
:100AAC001F249C4020EA04000C6804FA03F303435F
:100ABC00EB62C3E71568286903EB430307249C40EA
:100ACC0020EA04008C6804FA03F303432B61C6E7A5
:100ADC0013681648834205D0936A43F0200393624F
:100AEC000120C1E7986810F4000F1BD1986840F4FE
:100AFC00000098600B68102B01D00020B4E70C4B61
:100B0C001B680C49A1FB03139B0C03EB83035900DB
:100B1C00019102E0019B013B0193019B002BF9D158
:100B2C000020A1E700209FE70220A0E7002401405D
:100B3C000C00002083DE1B43806A704730B583B005
:100B4C000023019303689A6812F0010F2ED19A6862
:100B5C0042F001029A60174B1B68174AA2FB032351
:100B6C009B0C019302E0019B013B0193019B002B29
:100B7C00F9D10446FFF7ACFD054623689B6813F0DA
:100B8C00010F11D1FFF7A4FD401B0228F5D9A36A70
:100B9C0043F01003A362E36A43F00103E362002312
:100BAC0084F82430012002E0002000E0002003B093
:100BBC0030BD00BF0C00002083DE1B4390F82430B6
:100BCC00012B6AD010B50446012380F82430FFF7BE
:100BDC00B5FF024600285BD1A36A23F4407323F0CF
:100BEC00010343F48073A36223682D498B4227D001
:100BFC00A16A21F48011A162596811F4806F05D0AB
:100C0C00A16A21F4405141F48051A162A16A11F40E
:100C1C00805F2BD0E16A21F00601E162002184F8AB
:100C2C0024106FF0020119602368996801F46021A7
:100C3C00B1F5602F1DD0996841F4801199602AE0BC
:100C4C00A1F58061496811F4702FD1D0A16A41F4EB
:100C5C008011A1621349496811F4806FD6D0A16A42
:100C6C0021F4405141F48051A162CFE70021E162AF
:100C7C00D4E70B498B4204D0996841F4A0019960E8
:100C8C0009E0A1F58061496811F4702FD3D1F3E725
:100C9C00002384F82430104610BD02221046704701
:100CAC000028014000240140F8B50468454DAC42D1
:100CBC005BD0454B9C4258D090F82440012C7ED000
:100CCC0016460D460446012380F82430FFF736FF04
:100CDC00074600286ED1A36A23F4706323F0010346
:100CEC0043F48073A3622268374B9A4244D0A36AC0
:100CFC0023F48013A362536813F4806F05D0A36AA6
:100D0C0023F4405343F48053A362A36A13F4805F2B
:100D1C0048D0E36A23F00603E362002384F824300E
:100D2C00236A2A4A9A62236A294ADA62236A294A7E
:100D3C001A6323686FF002021A602268936843F406
:100D4C0080739360216833462A464C31206A00F048
:100D5C001FFA2268936803F46023B3F5602F24D044
:100D6C00936843F48013936027E0164B5B6813F48D
:100D7C00702FA1D0012720E0A3F580635B6813F4EA
:100D8C00702FB4D0A36A43F48013A3620D4B5B683D
:100D9C0013F4806FB9D0A36A23F4405343F4805307
:100DAC00A362B2E70023E362B7E7936843F4A003BE
:100DBC00936002E0002384F824303846F8BD022703
:100DCC00FBE700BF00240140002801408708000811
:100DDC00D9080008F309000838B503689A6812F0BE
:100DEC00010F01D1002038BD04469A6822F001029F
:100DFC009A60FFF76DFC054623689B6813F0010FA2
:100E0C000ED0FFF765FC401B0228F5D9A36A43F00E
:100E1C001003A362E36A43F00103E3620120E2E7FB
:100E2C000020E0E700287FD038B50446836A002B09
:100E3C0033D02046FFF7D0FFA36A13F010036DD117
:100E4C0000286BD1A26A22F4885222F0020242F0EE
:100E5C000202A2626268E1690A43257B42EA45020A
:100E6C00A168B1F5807F21D001291CD0217D0129F9
:100E7C001FD02568696821F469410B436B602168B8
:100E8C008D682A4B2B4013438B60A368B3F5807F8E
:100E9C0020D0012B1ED000211FE0C36280F824302B
:100EAC0003F086FEC5E74FF48073DFE74FF48073E1
:100EBC00DCE735B9A169013943EA413343F40063F6
:100ECC00D7E7A16A41F02001A162E16A41F001017A
:100EDC00E162CEE72369013B19052568EB6A23F42F
:100EEC0070030B43EB6223689968114B0B409A42D9
:100EFC000BD0A36A23F0120343F01003A362E36A3E
:100F0C0043F00103E36201200DE00023E362A36AD6
:100F1C0023F0030343F00103A36204E0A36A43F04C
:100F2C001003A362012038BD01207047FDF7E1FFDB
:100F3C00FE0E1FFF70B582B00023019390F8243091
:100F4C00012B68D00446012380F82430FFF744FFBE
:100F5C00054628B1002384F82430284602B070BD21
:100F6C00A36A23F4885323F0020343F00203A36221
:100F7C002A4B1E68022001F04DF8B6FBF0F0400041
:100F8C00019002E0019B013B0193019B002BF9D1E5
:100F9C002046FFF7D3FD2268936843F00803936063
:100FAC00FFF796FB064623689A6812F0080F0FD0DD
:100FBC00FFF78EFB801B0A28F5D9A36A23F01203D6
:100FCC0043F01003A362002384F824300125C4E706
:100FDC009A6842F004029A60FFF77AFB064623688F
:100FEC009B6813F0040F0FD0FFF772FB801B0A28CD
:100FFC00F5D9A36A23F0120343F01003A362002374
:10100C0084F824300125A8E7A36A23F0030343F0F6
:10101C000103A3629EE702259FE700BF0C0000209E
:10102C0070470000074AD36823F4E0631B041B0CD1
:10103C00000200F4E060184340F0BF6040F4003060
:10104C00D060704700ED00E030B4174BDB68C3F3A1
:10105C000223C3F10704042C28BF04241D1D062DF4
:10106C0018D9033B4FF0FF3505FA04F421EA0401CB
:10107C00994005FA03F322EA0303194300280BDB1A
:10108C000901C9B200F1604000F5614080F800131D
:10109C0030BC70470023E5E700F00F000901C9B22E
:1010AC00024B1954F4E700BF00ED00E014ED00E032
:1010BC00002807DB00F01F02400901239340024A7D
:1010CC0042F82030704700BF00E100E00138B0F179
:1010DC00807F0AD2064B5860064AF02182F8231012
:1010EC000020986007221A6070470120704700BFEB
:1010FC0010E000E000ED00E070B4066CC56B01245C
:10110C00B4406C60046863604368102B05D00368BE
:10111C0099600368DA6070BC704703689A60036872
:10112C00D960F8E760B310B402460168154B0B4464
:10113C001548A0FB03031B099B001364134BD363DB
:10114C00022382F82130086820F47F5020F0300010
:10115C00536894682343D468234314692343546924
:10116C00234394692343D469234303430B60002036
:10117C009063012382F8213082F8200010BC704764
:10118C0001207047F8FFFDBFCDCCCCCC0000024055
:10119C0038B590F82040012C32D0012480F8204042
:1011AC0090F82140012C04D0002380F8203002203C
:1011BC0038BD0446022084F821000020A063256875
:1011CC00286820F0010028602046FFF795FFE36AAD
:1011DC005BB12268136843F00E0313602268136836
:1011EC0043F0010313600020E2E72268136823F048
:1011FC00040313602268136843F00A031360EDE7DD
:10120C000220D5E708B590F82130022B03D0042337
:10121C008363012008BD0268136823F00E0313607A
:10122C000268136823F0010313600368194A9342A0
:10123C0014D0143293421FD0143293421ED0143265
:10124C0093421ED0143293421ED01432934202D0D9
:10125C004FF0807203E04FF4801200E001220E4B3D
:10126C005A60012380F82130002380F82030436B32
:10127C006BB198470020CDE71022F0E74FF4807255
:10128C00EDE74FF48052EAE74FF48032E7E70020B5
:10129C00C0E700BF080002400000024038B5C36B35
:1012AC001A6804682568016C04238B40134235D0FE
:1012BC0015F0040F32D0236813F0200F03D12368EC
:1012CC0023F0040323600368434A934214D014327E
:1012DC00934218D01432934217D01432934217D041
:1012EC001432934217D01432934202D04FF08062E2
:1012FC0003E04FF4800200E00422384B5A60C36ACA
:10130C0003B1984738BD4022F7E74FF48062F4E709
:10131C004FF48042F1E74FF48022EEE702238B403A
:10132C0013423CD015F0020F39D0236813F0200F74
:10133C0006D1236823F00A032360012380F82130AF
:10134C000368254A934214D0143293421CD01432B1
:10135C0093421BD0143293421BD0143293421BD0B5
:10136C001432934202D04FF0007203E04FF400129B
:10137C0000E00222194B5A60002380F82030836A67
:10138C00002BBFD09847BDE72022F3E74FF4007243
:10139C00F0E74FF40052EDE74FF40032EAE7082390
:1013AC0003FA01F11142ADD015F0080FAAD0236851
:1013BC0023F00E032360026CC16B012303FA02F2CB
:1013CC004A60836380F82130002380F82030036B5F
:1013DC00002B97D0984795E7080002400000024088
:1013EC00044B0022DA61044A136943F001031361D0
:1013FC0001807047E0010020002002401A4BDB689E
:10140C0013F0100F27D0194AD36943F00203D361AC
:10141C001023154AD26812F0040F06D01349CA697A
:10142C0042F00102CA6143F004030F4AD26912F080
:10143C00010F09D00D49CA6942F00402CA610A4978
:10144C00CA6922F00102CA6140F20112934204D02F
:10145C00054AD36070470023DBE7034AD36923F0C6
:10146C000103D361704700BF00200240E00100205F
:10147C000A4B1B6913F0800F0DD0084B084A5A60B9
:10148C0002F188325A601B6913F0800F01D00120E1
:10149C007047002070470020704700BF00200240BA
:1014AC0023016745034A136943F08003136100204D
:1014BC00704700BF0020024038B50446FFF708F91A
:1014CC000546174BDB6813F0010F0AD0B4F1FF3F50
:1014DC00F7D00CB3FFF7FCF8401BA042F1D9032066
:1014EC0019E00F4BDB6813F0200F02D00C4B2022BD
:1014FC00DA600B4BDB6813F0100F09D1084BDB697A
:10150C0013F0010F04D1064BDB6813F0040F05D068
:10151C00FFF774FF012038BD0320FCE70020FAE739
:10152C00002002402DE9F843234C247E012C41D0AD
:10153C001E4690460F4604461F4B01221A764CF26B
:10154C005030FFF7B9FF034670BB012C29D0022C99
:10155C0024D04FF0040900244C4525D22101C1F1BF
:10156C002002A1F1200328FA01F106FA02F211433C
:10157C0026FA03F3194389B207EB4400FFF730FF57
:10158C004CF25030FFF798FF0C4B1D6925F001050C
:10159C001D61034640B90134E4B2DDE74FF00209A6
:1015AC00D9E74FF00109D6E7034A00211176184616
:1015BC00BDE8F8830223FAE7E00100200020024096
:1015CC00064B0022DA61064B1A6942F004021A61DA
:1015DC001A6942F040021A61704700BFE001002016
:1015EC0000200240064B0022DA61064B1A6942F0D9
:1015FC0002021A6158611A6942F040021A6170477E
:10160C00E001002000200240264B1B7E012B46D01F
:10161C0070B50E460446234B01221A760368022B42
:10162C0020D04CF25030FFF747FF90BB4FF0FF3308
:10163C003360A5680122E168A36803EB8123AB4208
:10164C0028D92846FFF7CEFF4CF25030FFF734FF75
:10165C00154A136923F0020313610246B8B905F564
:10166C008065E8E74CF25030FFF726FF08B1012205
:10167C0010E00120FFF7A4FF4CF25030FFF71CFFE5
:10168C00024609490B6923F004030B6102E0356043
:10169C0000E00122034B00211976104670BD022296
:1016AC0010467047E001002000200240F0B482B0E8
:1016BC0000263246A2E0002D5AD0012D00D1CE6872
:1016CC00FF2B69D88446FF2B69D89500DCF80040C5
:1016DC000F27AF4024EA070406FA05F52C43CCF893
:1016EC0000404C6814F0805F00F087805F4CA56967
:1016FC0045F00105A561A46904F001040194019C65
:10170C009508AF1C5A4C54F8274002F00307BF0051
:10171C004FF00F0C0CFA07FC24EA0C0C554CA042B1
:10172C0043D004F58064A04200F0818004F580640D
:10173C00A0427ED004F58064A04234D0042435E06D
:10174C004D4FBD4214D00BD94C4FBD4210D007F5B4
:10175C008037BD420CD0A7F58017BD42B0D107E051
:10176C00A7F58017BD4203D007F58037BD42A7D13E
:10177C008D687DB1012D08D044610826A0E7CE68A4
:10178C0008369DE7CE680C369AE70461082697E781
:10179C00002695E7042693E700F1040C93E7A2F1E9
:1017AC000805AD0092E7032400E00024BC4044EAA5
:1017BC000C0402352E4F47F825404C6814F4803F3A
:1017CC0039D02F4D2C681C432C604C6814F4003F0E
:1017DC0037D02B4D6C681C436C604C6814F4801F24
:1017EC0035D0274DAC681C43AC604C6814F4001F1A
:1017FC0033D0234DEC682343EB6001320B6833FA92
:10180C0002F430D00124944023409C42F5D14D6821
:10181C00122DB7D094D8022DB1D07FF64CAF032D3A
:10182C00B6D0112D7FF44CAFCE68043648E70124B6
:10183C00BCE70224BAE7124D2C6824EA03042C609E
:10184C00C3E70F4D6C6824EA03046C60C5E70C4DCC
:10185C00AC6824EA0304AC60C7E7094DEC6824EAE1
:10186C000303EB60C9E702B0F0BC70470010024004
:10187C000000014000080140000021100000311060
:10188C00000401408368194201D1002070470120F7
:10189C00704712B90904016170470161704700007B
:1018AC0082B0084B1B68084AA2FB03235B0A00FBAF
:1018BC0003F0019000BF019B5A1E0192002BF9D13D
:1018CC0002B070470C000020D34D6210002800F0CD
:1018DC00F58170B582B00446036813F0010F2CD06B
:1018EC00AB4B5B6803F00C03042B1DD0A84B5B685F
:1018FC0003F00C03082B12D06368B3F5803F41D082
:10190C00002B55D103F1804303F504331A6822F4FC
:10191C0080321A601A6822F480221A6037E09C4BDD
:10192C005B6813F4803FE7D0994B1B6813F4003FBE
:10193C0003D06368002B00F0C381236813F0020FFF
:10194C0076D0934B5B6813F00C0F5FD0904B5B68B9
:10195C0003F00C03082B54D02369002B00F08A8071
:10196C008C4B01221A60FEF7B3FE0546884B1B68B0
:10197C0013F0020F75D1FEF7ABFE401B0228F5D910
:10198C000320A0E1824A136843F480331360636838
:10199C0043B3FEF79DFE05467D4B1B6813F4003FD9
:1019AC00CBD1FEF795FE401B6428F5D903208AE1C4
:1019BC00B3F5A02F09D0764B1A6822F480321A6046
:1019CC001A6822F480221A60E1E703F18043A3F540
:1019DC003C331A6842F480221A601A6842F480324E
:1019EC001A60D4E7FEF774FE0546694B1B6813F4C6
:1019FC00003FA2D0FEF76CFE401B6428F5D90320F3
:101A0C0061E1634B5B6813F4803FA5D1604B1B68AD
:101A1C0013F0020F04D02369012B01D0012052E1F5
:101A2C005B4A136823F0F803616943EAC10313604E
:101A3C00236813F0080F32D0A369002B5BD0564BF0
:101A4C0001221A60FEF744FE0546514B5B6A13F007
:101A5C00020F21D1FEF73CFE401B0228F5D90320D2
:101A6C0031E14B4A136823F0F803616943EAC1037F
:101A7C001360DDE7474B00221A60FEF729FE05468E
:101A8C00434B1B6813F0020FD2D0FEF721FE401B14
:101A9C000228F5D9032016E10120FFF701FF236886
:101AAC0013F0040F00F09880394BDB6913F0805F62
:101ABC0033D1374BDA6942F08052DA61DB6903F0DB
:101ACC0080530193019B0125344B1B6813F4807FD9
:101ADC0025D0E368012B36D0002B4CD103F1804389
:101AEC0003F504331A6A22F001021A621A6A22F010
:101AFC0004021A622CE0284B00221A60FEF7E8FD63
:101B0C000546234B5B6A13F0020FC8D0FEF7E0FDCD
:101B1C00401B0228F5D90320D5E00025D4E71F4A45
:101B2C00136843F480731360FEF7D2FD06461B4B1B
:101B3C001B6813F4807FCCD1FEF7CAFD801B642890
:101B4C00F5D90320BFE0124A136A43F00103136274
:101B5C00E3687BB3FEF7BCFD06460D4B1B6A13F026
:101B6C00020F38D1FEF7B4FD801B41F28833984246
:101B7C00F3D90320A7E0052B12D0054B1A6A22F0EB
:101B8C0001021A621A6A22F004021A62E0E700BF2C
:101B9C0000100240000042428004424200700040AB
:101BAC004C4B1A6A42F004021A621A6A42F00102A1
:101BBC001A62CDE7FEF78CFD0646464B1B6A13F006
:101BCC00020F08D0FEF784FD801B41F28833984247
:101BDC00F3D9032077E0E5B9E369002B72D03D4AD5
:101BEC00526802F00C02082A56D0022B17D03A4B3E
:101BFC0000221A60FEF76CFD0446364B1B6813F08E
:101C0C00007F47D0FEF764FD001B0228F5D90320A6
:101C1C0059E0304AD36923F08053D361DCE72E4B73
:101C2C0000221A60FEF754FD05462A4B1B6813F080
:101C3C00007F06D0FEF74CFD401B0228F5D903208F
:101C4C0041E0236AB3F5803F1AD022494B6823F454
:101C5C007413226A606A024313434B601E4B0122C9
:101C6C001A60FEF735FD04461A4B1B6813F0007F13
:101C7C000ED1FEF72DFD001B0228F5D9032022E022
:101C8C00144A536823F40033A1680B435360DCE718
:101C9C00002018E0002016E0012B16D00D4B5B68DD
:101CAC0003F48031226A914201D001200BE003F44D
:101CBC007013626A93420AD0012004E0012070473D
:101CCC00012000E0002002B070BD0120FBE70020E5
:101CDC00F9E700BF001002406000424210B487B028
:101CEC00164C94E80F000DF1180C0CE90F00238A28
:101CFC00ADF80430124B5B6803F00C02082A1AD1C1
:101D0C00C3F38342624412F8102C13F4803F05D1C4
:101D1C000C4800FB02F007B010BC7047084B5B6826
:101D2C00C3F34043634413F8143C074800FB02F030
:101D3C00B0FBF3F0EFE70448EDE700BFC458000830
:101D4C000010024000093D0000127A00002800F04B
:101D5C00A38070B50446524B1B6803F007038B42FB
:101D6C000CD24F4A136823F007030B43136013681C
:101D7C0003F007038B4201D0012070BD236813F0E0
:101D8C00020F17D013F0040F04D0464A536843F4E3
:101D9C00E0635360236813F0080F04D0414A536882
:101DAC0043F4605353603F4A536823F0F003A06838
:101DBC00034353600D46236813F0010F31D0636861
:101DCC00012B20D0022B25D0364A126812F0020FBC
:101DDC0064D034494A6822F0030213434B60FEF787
:101DEC0077FC06462F4B5B6803F00C036268B3EB81
:101DFC00820F16D0FEF76CFC801B41F288339842A0
:101E0C00F0D90320B9E7274A126812F4003FE0D159
:101E1C000120B2E7234A126812F0007FD9D10120C9
:101E2C00ABE71F4B1B6803F00703AB420CD91C4AF2
:101E3C00136823F007032B431360136803F00703A5
:101E4C00AB4201D0012098E7236813F0040F06D0B1
:101E5C00144A536823F4E063E1680B43536023682E
:101E6C0013F0080F07D00F4A536823F4605321690D
:101E7C0043EAC1035360FFF731FF0A4B5B68C3F3BE
:101E8C000313094AD35CD840084B1860084B1868F8
:101E9C00FEF7DAFB002070E70120704701206CE7A9
:101EAC000020024000100240205B00080C000020C3
:101EBC0004000020014B1868704700BF0C00002084
:101ECC0008B5FFF7F7FF044B5B68C3F30223034A23
:101EDC00D35CD84008BD00BF00100240305B000846
:101EEC0008B5FFF7E7FF044B5B68C3F3C223034A53
:101EFC00D35CD84008BD00BF00100240305B000826
:101F0C0070B582B00446036813F0010F34D03E4B19
:101F1C00DB6913F0805F48D13B4BDA6942F08052A9
:101F2C00DA61DB6903F080530193019B0125374B88
:101F3C001B6813F4807F3AD0334B1B6A13F4407345
:101F4C0011D0626802F440729A420CD02E4A136A85
:101F5C0023F440702E4901260E6000260E6010629C
:101F6C0013F0010F37D1284A136A23F440736168C8
:101F7C000B431362002D3FD1236813F0020F06D0E0
:101F8C00214A536823F44043A1680B4353602368F0
:101F9C0013F0100F35D01C4A536823F48003E1680A
:101FAC000B435360002002B070BD0025BFE7174AF9
:101FBC00136843F480731360FEF78AFB0646134BD9
:101FCC001B6813F4807FB7D1FEF782FB801B64285B
:101FDC00F5D90320E7E7FEF77BFB06460A4B1B6AA5
:101FEC0013F0020FBFD1FEF773FB801B41F2883355
:101FFC009842F3D90320D6E7D36923F08053D361F9
:10200C00BAE70020CFE700BF00100240007000408C
:10201C004004424230B587B00546384C94E80F0076
:10202C000DF1180C0CE90F00238AADF80430022DC9
:10203C0050D0102D03D0012D2BD0002054E0304B6C
:10204C005A681B6813F0807F50D0C2F3834306A9F3
:10205C000B4413F8100C12F4803F16D0284B5B681D
:10206C00C3F340430B4413F8142C264BB3FBF2F38D
:10207C0000FB03F0224B5B6813F4800F34D140005B
:10208C00214BA3FB003040082EE0204B03FB00F05B
:10209C00F0E71B4B1B6A40F202321A40B2F5817F0B
:1020AC0026D003F44073B3F5007F04D0B3F5407F22
:1020BC0009D0002018E0124A526A12F0020FF5D033
:1020CC0049F6404010E00E4B1B6813F4003F12D150
:1020DC00002009E0FFF704FF094B5B68C3F3813371
:1020EC0001335B00B0FBF3F007B030BD0020FBE721
:1020FC004FF40040F8E74FF22440F5E7D8580008B9
:10210C000010024000127A00ABAAAAAA00093D00F6
:10211C0070B4036A23F001030362036A42688469A2
:10212C0024F073040D6845EA040623F002048B685E
:10213C0023430D4DA84209D00B4DA8420DD042604F
:10214C0086614A684263036270BC704723F00803DF
:10215C00CC68234323F00403EEE722F440724C696D
:10216C0014438A692243EAE7002C014030B4036A25
:10217C0023F480730362036A4268C46924F0730415
:10218C000D682C4323F400738D6843EA05230F4D2F
:10219C00A84209D00D4DA8420ED04260C4614A68D5
:1021AC00C263036230BC704723F40063CD6843EA1A
:1021BC00052323F48063EDE722F440524D6942EA93
:1021CC0005128D6942EA0512E7E700BF002C0140B9
:1021DC0030B4036A23F480530362036A4468C2690F
:1021EC0022F4E6420D6842EA052223F400538D687E
:1021FC0043EA0533074DA84206D04460C2614A68E1
:10220C000264036230BC704724F480444D6944EA94
:10221C008514F2E7002C014003681B4A90420AD057
:10222C00B0F1804F07D0A2F59432904203D002F562
:10223C008062904203D123F070034A681343124A20
:10224C0090420AD0B0F1804F07D0A2F59432904260
:10225C0003D002F58062904203D123F44073CA6824
:10226C00134323F080034A69134303608B68C362F2
:10227C000B688362044B984202D001234361704780
:10228C000B690363F9E700BF002C0140A8B110B53E
:10229C00044690F83D305BB1022384F83D30211D9B
:1022AC002068FFF7B9FF012384F83D30002010BDF2
:1022BC0080F83C3002F000FDEEE701207047A8B139
:1022CC0010B5044690F83D305BB1022384F83D30E4
:1022DC00211D2068FFF7A0FF012384F83D3000206A
:1022EC0010BD80F83C3002F0FBFCEEE7012070479B
:1022FC0030B4036A23F010030362036A44688269F2
:10230C0022F4E6420D6842EA052223F020038D6890
:10231C0043EA05130E4DA84209D00D4DA8420ED02C
:10232C00446082614A688263036230BC704723F068
:10233C008003CD6843EA051323F04003EDE724F452
:10234C0040644D6944EA85048D6944EA8504E7E7F5
:10235C00002C014090F83C30012B28D010B50446DD
:10236C00012380F83C30022380F83D300C2A0BD836
:10237C00DFE802F0070A0A0A110A0A0A150A0A0A11
:10238C0019000068FFF7C4FE012384F83D300020DB
:10239C0084F83C0010BD0068FFF7AAFFF4E7006862
:1023AC00FFF7E4FEF0E70068FFF712FFECE702200E
:1023BC00704738B590F83C30012B66D00D4604467A
:1023CC00012380F83C30022380F83D300C2A1AD8C7
:1023DC00DFE802F0071919192019191934191919FC
:1023EC0047000068FFF794FE2268936943F00803E6
:1023FC0093612268936923F00403936122689369C3
:10240C0029690B439361012384F83D30002084F843
:10241C003C0038BD0068FFF76BFF2268936943F4FA
:10242C00006393612268936923F48063936122684B
:10243C009369296943EA01239361E4E70068FFF794
:10244C0095FE2268D36943F00803D3612268D369EF
:10245C0023F00403D3612268D36929690B43D36148
:10246C00D1E70068FFF7B4FE2268D36943F4006338
:10247C00D3612268D36923F48063D3612268D36962
:10248C00296943EA0123D361BDE70220C1E710B4F7
:10249C0001F01F01012303FA01F4036A23EA040388
:1024AC000362036A8A401343036210BC7047000046
:1024BC0010B5044601220068FFF7E9FF23680A4AB9
:1024CC0093420BD02268936803F00703062B03D0CA
:1024DC00136843F001031360002010BD5A6C42F4E2
:1024EC0000425A64EEE700BF002C014010B50446D0
:1024FC0001220068FFF7CBFF23680A4A93420BD0F6
:10250C002268936803F00703062B03D0136843F08B
:10251C0001031360002010BD5A6C42F400425A644F
:10252C00EEE700BF002C014090F83C30012B1CD092
:10253C0070B4012680F83C60022380F83D300268BC
:10254C005568936825F070050C682C4323F08005C2
:10255C004B682B4354600268936080F83D60002305
:10256C0080F83C30184670BC7047022070470268F7
:10257C00D36823F49073D3600268536923F001038A
:10258C005361202380F83A30704790F83930DBB231
:10259C00212B2AD18368B3F5805F16D0036A5A1CAD
:1025AC0002621A7803685A60C38C013B9BB2C384E5
:1025BC00EBB90268D36823F08003D3600268D36858
:1025CC0043F04003D36000207047036A1B88026805
:1025DC00C3F30803536003691BB9036A0233036234
:1025EC00E2E7036A01330362DEE702207047002052
:1025FC007047000038B504460268136923F4405351
:10260C00C1680B43136183680269134342691A431F
:10261C000168CB6823F4B05323F00C031343CB6055
:10262C000268536923F4407381690B435361026858
:10263C00214B9A421FD0FFF743FC00EB800000EBCC
:10264C00800063689B00B0FBF3F01C4DA5FB0032CF
:10265C005109642202FB110213013233A5FB03233F
:10266C005B0903F0F00202EB011203F00F03216887
:10267C0013448B6038BDFFF733FC00EB800000EB9C
:10268C00800063689B00B0FBF3F00C4DA5FB00329F
:10269C005109642202FB110213013233A5FB0323FF
:1026AC005B0903F0F00202EB011203F00F03216847
:1026BC0013448B60DEE700BF003801401F85EB51EF
:1026CC00002830D010B5044690F8393033B32423A9
:1026DC0084F839302268D36823F40053D360204641
:1026EC00FFF788FF2268136923F490431361226873
:1026FC00536923F0220353612268536943F00803A2
:10270C0053612268D36843F40053D3600020E06324
:10271C00202384F8393084F83A3010BD80F83830F2
:10272C0002F028FBD3E70120704790F83A30DBB277
:10273C00202B20D109B312B390F83830012B20D0C4
:10274C0081628285C2850023C363222280F83A20ED
:10275C0080F838300168CA6842F48072CA60016837
:10276C004A6942F001024A610168CA6842F02002DB
:10277C00CA6018467047022070470120704701203C
:10278C00704702207047704708B50168CB6823F08A
:10279C004003CB60202380F83930FFF7F4FF002092
:1027AC0008BD08B590F83A30DBB2222B45D18368CE
:1027BC00B3F5805F0ED0036903BB03685A68836A64
:1027CC00591C81621A70C38D013B9BB2C385F3B156
:1027DC00002033E0826A036943B903685B68C3F382
:1027EC0008031380836A02338362ECE703685B6837
:1027FC00DBB21380836A01338362E4E703685B68AE
:10280C00826A511C816203F07F031370DBE702685C
:10281C00D36823F02003D3600268D36823F4807359
:10282C00D3600268536923F001035361202380F8BD
:10283C003A3000F04FF9002000E0022008BD70474C
:10284C0010B5044602681368D168526913F00F0082
:10285C0005D113F0200F02D011F0200F53D1002816
:10286C0067D012F0010202D111F4907F61D013F005
:10287C00010F06D011F4807F03D0E06B40F0010013
:10288C00E06313F0040F04D01AB1E06B40F00200C7
:10289C00E06313F0020F04D01AB1E06B40F00400B7
:1028AC00E06313F0080F04D01AB1E26B42F0080297
:1028BC00E263E26B002A48D013F0200F02D011F033
:1028CC00200F24D123685B6903F04003E26B12F004
:1028DC00080F00D13BB32046FFF749FE23685A6925
:1028EC0012F0400F1BD05A6922F040025A61636B00
:1028FC008BB11A4A5A63606BFEF784FC28B3606B89
:10290C00436B984721E02046FFF74BFF1DE0204624
:10291C00FFF747FFD6E72046FFF791FF15E020466B
:10292C00FFF78DFF11E02046FFF789FF0023E363DB
:10293C000BE013F0800F02D011F0800F06D113F0D2
:10294C00400F02D011F0400F04D110BD2046FFF70C
:10295C001CFEFAE72046FFF717FFF6E76D29000883
:10296C0008B5406A0023C385C384FFF768FF08BD20
:10297C00012800D070474FF6FF739942FAD1044BEF
:10298C0000221A705A709A70DA709A80F2E700BFBF
:10299C00B000002008B5012202490348FFF7C5FE2C
:1029AC0008BD00BF9D000020A002002000B583B030
:1029BC001E4800F076FCC0B11C4B9B78013B1D2BD4
:1029CC0013D8DFE803F00F2612122A121212121279
:1029DC0012121212121212121212121212121212CB
:1029EC001212122E114800F0B5FC00238DF80030A5
:1029FC008DF801308DF802308DF80330ADF80430CD
:102A0C000A4B02AA12E903001860998003B05DF822
:102A1C0004FB064800F01EFDE7E7044800F064FCE8
:102A2C00E3E7024800F048FCDFE700BFB0000020FD
:102A3C0008B5034B1B7803B908BDFFF7B7FFFBE7DD
:102A4C00B000002008B5FDF743FE194B1B78BBB94D
:102A5C00184B1B68C31A632B0FD9164B18601449FB
:102A6C000A78531CDBB20B7013490878134988544D
:102A7C00062B0ED0FFF78EFF08BDFFF78BFFFBE791
:102A8C000C4B1B68C31A142BE7D9094B00221A7084
:102A9C00E3E70B4BD1E9000118609980094B1B78D7
:102AAC001BB1034B00221A70E4E7FFF77FFFF8E736
:102ABC00AC000020A80000209D000020A0000020F9
:102ACC00B00000209C00002008B5FFF7BBFF08BD3C
:102ADC007047704708B503680A4A93420ED002F556
:102AEC007042934204D0A2F57442934203D008BDC5
:102AFC00FFF7EAFFFBE7FFF7EBFFF8E7FFF7E9FF6C
:102B0C00F5E700BF0048004008B54FF6FF71012003
:102B1C00FFF72EFF08BD000008B5124B1B684C22B6
:102B2C0002FB003393F847209AB158B1012811D019
:102B3C0002280ED10C4A10680268126AB3F84410CD
:102B4C00904706E0084A106802681269B3F844100E
:102B5C00904708BD044A106802689269B3F84410A3
:102B6C009047F6E7CC010020DC000020012800D0C3
:102B7C0070474FF6FF739942FAD110B485B0184BD9
:102B8C00002806DB00221A609A809A7108330138FB
:102B9C00F6E7134B00221A745A749A740121D974F3
:102BAC00104C02944FF48041ADF80C108DF80E20AF
:102BBC0004A911E9030018609980090C997100941B
:102BCC004FF40041ADF804108DF806206A4692E8E7
:102BDC00030098609981090C997305B010BC70477B
:102BEC00B80000200010014010B50346044C01222F
:102BFC00227008469847FFF71BFF0023237010BD77
:102C0C009C0000202DE9F04F83B00A20FDF766FDF3
:102C1C0002F08CF9002576E0002363828FE0B4F893
:102C2C0002A0514540F2B9806180A4F804A0B4E040
:102C3C0021898A4240F2C18022816181BDE0E28912
:102C4C00934240F2C780E3812282C3E0224652F8CD
:102C5C000C0F00909388ADF80430234653F8061FF0
:102C6C00E16099889180D8F80020C4F80620B8F863
:102C7C0004209A800098B851BDF80430A380A28833
:102C8C0023899A4202D8A1898B4211D9A1898B42FE
:102C9C0001D39A420CD29A4240F2D0808B4280F0FF
:102CAC00CD808A4200D30A46E388934200DB134668
:102CBC00A28F04EB4200068D216C891B21640385D5
:102CCC00013292B2A287092A01D90022A2879BB2B3
:102CDC000B442364934A82FB0312DB17C3EBA2035E
:102CEC009BB2A4F8443094F847205AB9B4F8482061
:102CFC00D31A002BB8BF5B42B3F5CD7F02DB0123A7
:102D0C0084F84730013502F03FF9A84240F3A58022
:102D1C004C2606FB05F6844B1F68BC19A04694F89C
:102D2C00460002F029F9638A03F1080204EB42021F
:102D3C00908001339BB26382092B3FF46DAFB4F8E2
:102D4C0014A027F806A0B4F816B0A4F802B0218B92
:102D5C00A180B4F81AE0A4F806E0B4F81C90A4F82A
:102D6C000890E28B6281208CA081B4F822C0A4F878
:102D7C000EC0A38C2382DA4503D227F806B0A4F840
:102D8C0002A037F806A051457FF649AFB4F802B05F
:102D9C00A4F804B0A4F802A0B953CE4503D2A4F809
:102DAC000690A4F808E0E1888A427FF641AFB4F8B7
:102DBC0008E0A4F80AE02181E280604502D2A4F880
:102DCC000CC0E081A28993427FF639AFE189218260
:102DDC00E281A381628823899A4212D2D8F800003A
:102DEC000090B8F80430ADF80430234653F8062FA1
:102DFC00BA519A88A2800098C4F80600BDF8042045
:102E0C009A80E389628893423FF620AF22899342ED
:102E1C007FF635AF224652F8060F00909388ADF836
:102E2C000430234653F80C1FC4F80610998891807F
:102E3C000098E060BDF804209A8020E79A42BFF425
:102E4C0037AF8B427FF634AF8A4200D80A4663898B
:102E5C0093423FF72DAF13462AE7002402F094F873
:102E6C00844205DA21463148FFF7BEFE0134F5E70E
:102E7C002F4B1B68052B0BD02D4B1B6801334FD4EC
:102E8C00052B00DD00232A4A136003B0BDE8F08F48
:102E9C00284CA1882068FEF7F5FCA37913B3012810
:102EAC0014BF0020012010B3224B01225A74214B75
:102EBC00DB7C3BB91F4B1A7C5B7C9A4202D01D4BCE
:102ECC000122DA741B4BDB7C3BB11A4B1A7C597C0C
:102EDC00521A18BF01229A74197400211648FFF770
:102EEC0083FEC9E710F1FF3018BF0120DBE7114C5E
:102EFC00A189A068FEF7C6FCA37B43B1012814BFCF
:102F0C000020012040B10B4B02225A74CFE710F184
:102F1C00FF3018BF0120F5E7064B03225A74C6E7B1
:102F2C000523B0E767666666CC010020252B0008F8
:102F3C00CC000020B80000206D32000810B5002431
:102F4C0002F022F884420DDA094B1A684C2303FB79
:102F5C000423002283F84720B3F84420A3F8482028
:102F6C000134EDE7034B0022DA745A7C1A7410BD5D
:102F7C00CC010020B800002010B5002402F004F8A9
:102F8C00844209DA064B1A684C2303FB0423012202
:102F9C0083F847201444F1E7024B0122DA7410BD88
:102FAC00CC010020B80000202DE9F04F87B004467A
:102FBC000190A84B186803685B6D9847A04200F01D
:102FCC004581FFF7D9FF00278DF810708DF811702F
:102FDC00ADF81270ADF81470ADF8167001F0A6FFD4
:102FEC0076E0002363828FE0B4F802A0514540F2F2
:102FFC00B9806180A4F804A0B4E021898A4240F22F
:10300C00C18022816181BDE0E289934240F2C78098
:10301C00E3812282C3E0224652F80C0F029093887F
:10302C00ADF80C30234653F8061FE1609988918067
:10303C00D8F80020C4F80620B8F804209A8002982A
:10304C007051BDF80C30A380A28823899A4202D813
:10305C00A1898B4211D9A1898B4201D39A420CD2FE
:10306C009A4240F2D0808B4280F0CD808A4200D3CD
:10307C000A46E388934200DB1346A28F04EB42001E
:10308C00058D216C491B21640385013292B2A28704
:10309C00092A01D90022A2879BB20B4423646E4AF1
:1030AC0082FB0312DB17C3EBA2039BB2A4F84430E0
:1030BC0094F847205AB9B4F84820D31A002BB8BF5B
:1030CC005B42B3F5CD7F02DB012384F84730013737
:1030DC0001F05AFFB84240F3A5804C2505FB07F5DB
:1030EC005E4B1E687419A04694F8460001F044FF2C
:1030FC00638A03F1080204EB4202908001339BB215
:10310C006382092B3FF46DAFB4F814A026F805A028
:10311C00B4F816B0A4F802B0218BA180B4F81AE070
:10312C00A4F806E0B4F81C90A4F80890E28B628135
:10313C00208CA081B4F822C0A4F80EC0A38C2382EA
:10314C00DA4503D226F805B0A4F802A036F805A09B
:10315C0051457FF649AFB4F802B0A4F804B0A4F816
:10316C0002A07153CE4503D2A4F80690A4F808E04F
:10317C00E1888A427FF641AFB4F808E0A4F80AE08F
:10318C002181E280604502D2A4F80CC0E081A289C2
:10319C0093427FF639AFE1892182E281A381628873
:1031AC0023899A4212D2D8F800000290B8F8043061
:1031BC00ADF80C30234653F8062F72519A88A28032
:1031CC000298C4F80600BDF80C209A80E389628846
:1031DC0093423FF620AF228993427FF635AF2246C9
:1031EC0052F8060F02909388ADF80C30234653F832
:1031FC000C1FC4F80610998891800298E060BDF805
:10320C000C209A8020E79A42BFF437AF8B427FF6AE
:10321C0034AF8A4200D80A46638993423FF72DAFF8
:10322C0013462AE7019B8DF811300C4B1B68B3F841
:10323C004420ADF81220B3F89020ADF81420B3F868
:10324C00DC30ADF8163004A801F00EF807B0BDE87C
:10325C00F08F00BFDC00002067666666CC010020A2
:10326C0010B50B4B5C7CDB7C2BB1012C04D0032CFC
:10327C0006D0022C08D010BD0220FFF795FEF6E711
:10328C000120FFF791FEF4E70620FFF78DFEF2E731
:10329C00B800002008B54FF6FF710120FFF766FC5F
:1032AC0008BD0378FF2B05D0322B01D000207047CE
:1032BC00012070470120704708B5094B1B6800229C
:1032CC0083F8DF20B3F8DC20A3F8E020054B1B6863
:1032DC001A68926AB0F904101846904708BD00BFEE
:1032EC00CC010020DC00002008B5FFF745FE08BD2E
:1032FC0010B40023048A9C4205DD0C78944205D05E
:10330C0008390133F6E7002010BC70470846FBE78C
:10331C0030B583B0044608461D464968038A03F15C
:10332C000053013B01EBC301FFF7E2FF30B1026830
:10333C00436822606360204603B030BD6B4628684A
:10334C00696803C3FF2203F8082D03CB206061607A
:10335C00F1E7000000B585B0C2781C4B1B6803EB8D
:10336C00830359000A4400238DF808308DF8093086
:10337C00ADF80A30ADF80C30ADF80E3002AB92B2AD
:10338C0013496846FFF7C4FF9DF80030FF2B05D0AA
:10339C009DF80130022B04D9062B02D005B05DF844
:1033AC0004FBBDF802200B4B1B889A42F6D8BDF8E3
:1033BC0004209342F2D3BDF806209342EED3FFF7DC
:1033CC00BDFD684600F050FFE8E700BFD0000020CC
:1033DC00E0000020385B000838B50446426883687A
:1033EC0043608260C360002500E00135FE2D16DCD1
:1033FC00A168238A03F10053013BAAB201EBC3017C
:10340C002046FFF775FF02460028EED023689B6824
:10341C00E16820469847E3680833E360E5E72368F2
:10342C00DB68A1682046984738BD10B50446036890
:10343C009B680A46C1689847E3680833E360626892
:10344C00218A02EBC102934200D210BD2046FFF745
:10345C00C3FFFAE710B582B0C278184B1B6803EBB8
:10346C00830359000A44164B1C6800238DF8013065
:10347C00ADF80230ADF80430ADF806308DF8002010
:10348C0023685B6D204698478DF8010023685B69C3
:10349C0020469847ADF802002368DB692046984720
:1034AC00ADF8040023685B6A20469847ADF8060027
:1034BC0069460448FFF7B9FF02B010BDD0000020E8
:1034CC00DC000020E00000207047002070477047AF
:1034DC0000207047704700207047704700207047ED
:1034EC0070470020704770470020704770470020DD
:1034FC00704770470020704708B503685B689847B1
:10350C0008BD09B2418181817047B0F90A0070474A
:10351C0009B2418281827047B0F912007047B0F94C
:10352C0004007047B0F90410094B1A88036A023B77
:10353C0003FB01F393FBF2F04FF47A7300FB0333BC
:10354C00044880FB0320DB17C3EB6030704700BFDF
:10355C00385B0008AD8BDB680120704730B4036A20
:10356C00013B2BB1C269002122F81310013BF8E793
:10357C00C36900221A80B0F90650134B1C88016AEB
:10358C004A1E531E03FB05F393FBF4F3013300D1E6
:10359C0001239A4200D31A46C262436A9B1ADB0388
:1035AC008362002B0ADBDA13002A09DBB0F90C303A
:1035BC00C381B0F91430C38230BC7047DA13F3E71F
:1035CC0003EBC1338362F1E7385B000808B503688D
:1035DC005B68984708BD09B2418181817047B0F999
:1035EC000A00704709B2418281827047B0F912001B
:1035FC007047B0F904007047B0F90410094B1A88F1
:10360C00036A023B03FB01F393FBF2F04FF47A7372
:10361C0000FB0333044880FB0320DB17C3EB203093
:10362C00704700BF385B0008AD8BDB680620704725
:10363C0030B4036A013B2BB1C269002122F813108C
:10364C00013BF8E7C36900221A80B0F90650134B0E
:10365C001C88016A4A1E531E03FB05F393FBF4F30B
:10366C00013300D101239A4200D31A46C262436A45
:10367C009B1ADB038362002B0ADBDA13002A09DBBB
:10368C00B0F90C30C381B0F91430C38230BC704730
:10369C00DA13F3E703EBC1338362F1E7385B00081D
:1036AC0008B503685B68984708BD09B28181C18180
:1036BC007047B0F90C00704709B28182C182704723
:1036CC00B0F914007047B0F904007047B0F9041059
:1036DC00094B1A88036A023B03FB01F393FBF2F0DC
:1036EC004FF47A7300FB0333044880FB0320DB1791
:1036FC00C3EB6030704700BF385B0008AD8BDB68F4
:10370C0002207047002383620123C362036A013BDA
:10371C002BB1C269002122F81310013BF8E7C369F1
:10372C0000221A80B0F906300381B0F90E30038202
:10373C00B0F916300383704708B503685B68984787
:10374C0008BD00207047704700207047704700008C
:10375C00012800D070474FF6FF739942FAD1034B02
:10376C004FF4C8721A605A60F4E700BFD40000200E
:10377C0010B50446042101F001FF204610BD0000E5
:10378C00F8B5054600F1680600F19004403001F0F0
:10379C006AFEA36833B1012B71D06168304601F029
:1037AC0062FEF8BDD5F89050E368C5F8A43005F179
:1037BC001C0CB5F90830B5F90620934201DA013337
:1037CC002B81B5F908309A4201DA013B2B81B5F90E
:1037DC000870794B19882A6AA2F1650303FB07F379
:1037EC0093FBF1F36433DCF80420934200DD531EA9
:1037FC00002B12DDDCF808209A4210DDE96901EBA0
:10380C004301DCF80020DCF8087002EB47028A4226
:10381C0005D9002221F8022BF3E70123EAE7CCF8C3
:10382C000830DCF80C20934202DC013BCCF80C3065
:10383C00A96A6B6A2A6B9B1A0133994207D0931EB3
:10384C00994210D02061A3680133A360A5E7EB6A0D
:10385C00002BF4DD531E6B634FF0FF33AB6301237E
:10386C0085F83C30EBE7EB6A002BEBDA013A6A6344
:10387C004FF0FF33AB63012385F83C30E2E7D5F81A
:10388C009030996ADA6932F91150C3F8AC5093F858
:10389C003C2072B1596B01FB05F21F6B92FBF7F5E3
:1038AC009A6B11445963B2F1FF3F63D09A6B012AB2
:1038BC0065D0C3F8AC50B3F91020B3F90E108A429E
:1038CC0001DA01321A82B3F91020914201DA013A7D
:1038DC001A82B3F9101001FB05F1384A82FB017210
:1038EC000A44C917C1EBE221D3F8A420511AC3F83A
:1038FC00A410B3F91820B3F91670BA4201DA0132E8
:10390C001A83B3F91820974201DA013A1A83B3F9F2
:10391C00182002FB05F2294D85FB02751544D217C0
:10392C00C2EBE52201F30F01C3F8A41002F30F025E
:10393C00C3F8A82003F11C0209B2D7689568AF42FE
:10394C0003DB0025D56001251561D568002D1CDB36
:10395C00D768DD6925F817101169D5682944D1603D
:10396C009568A94216DA002919DA0021D1600121E3
:10397C00116114E0002999D101229A6396E78F42D4
:10398C0097D1002283F83C2093E70025D5600125D0
:10399C001561DDE7013DD5604FF0FF311161D3F8C2
:1039AC00A830636023691844206100EBD07040108C
:1039BC00E0600023A360F0E6385B0008810008801B
:1039CC0010B50446034B0360C06908B101F0CFFD8C
:1039DC00204610BDF458000810B50446054B036092
:1039EC00C06908B101F0C3FDA021204601F0C6FD5D
:1039FC00204610BDF458000810B50446034B036074
:103A0C00C06908B101F0B3FD204610BD545900083F
:103A1C0010B50446054B0360C06908B101F0A7FD61
:103A2C00C821204601F0AAFD204610BD54590008BB
:103A3C0010B50446034B0360C06908B101F097FD53
:103A4C00204610BDB459000810B50446054B036060
:103A5C00C06908B101F08BFDB021204601F08EFD4C
:103A6C00204610BDB4590008F8B5054600F15807BA
:103A7C0000F1A804303001F0F6FC0646A36803BB45
:103A8C00D5F8A810E368C1F8BC30B1F90650664B04
:103A9C0018880A6A013A531E03FB05F393FBF0F3F3
:103AAC00013300D101239A4209D2CA622661A3686C
:103ABC000133A3606168384601F0D5FCF8BD1A46A5
:103ACC00F3E7012B19D0022B00F08C80032BF1D1E2
:103ADC00D5F8A820D2F8C03003F30F03C2F8C030D9
:103AEC00636023691E4426613346002EC0F29A801F
:103AFC009B10E3600023A360DCE7D5F8A83003F14A
:103B0C001C0CDCF80C1000295EDBC813DA6932F9E6
:103B1C001050DCF80820121A1046002A59DBC0039A
:103B2C00DCF8102090FBF2F00144CCF80C100029CA
:103B3C0053DBCA13DCF80400824203D3A1EBC0317F
:103B4C00CCF80C10C3F8C450B3F90E20B3F90C1018
:103B5C008A4201DA0132DA81B3F90E20914201DA9C
:103B6C00013ADA81B3F90E1001FB05F12F4A82FB01
:103B7C0001020A44C917C1EBE221D3F8BC20511A47
:103B8C00C3F8BC10B3F91620B3F914108A4201DA49
:103B9C000132DA82B3F91620914201DA013ADA8263
:103BAC00B3F9162002FB05F2204981FB02011144F6
:103BBC00D217C2EBE122C3F8C02023691E44266150
:103BCC00A3680133A36075E701F5FF427F32D01380
:103BDC009CE7DCF804001044A1E701F5FF427F32BA
:103BEC00D213A7E7D5F8A850D5F8BC1005F1800082
:103BFC0001F0DAFB00F30F00C5F8BC006A6AEB6950
:103C0C0023F812006B6A01336B622A6A934206D066
:103C1C0023691E442661A3680133A3604AE700238D
:103C2C006B62F5E7F31C63E7385B000881000880E2
:103C3C00F8B5054600F1580600F18004303001F06B
:103C4C0012FCA36833B1012B4DD06168304601F0F2
:103C5C000AFCF8BDD5F88020E368C2F8943002F174
:103C6C001C05B2F906C04E4B1F88116A01394B1E58
:103C7C0003FB0CF393FBF7F3013300D101239942BF
:103C8C0022D2D162EB68002B20DBD913D76937F92C
:103C9C0011C0AF687F1A3946002F1CDBC9032F698E
:103CAC0091FBF7F10B44EB60002B17DBD9136F681A
:103CBC00B94202D3A3EBC733EB60C2F89CC02061BE
:103CCC00A3680133A360C0E71946DAE703F5FF47A1
:103CDC007F37F913DAE769683944DFE703F5FF4109
:103CEC007F31C913E3E7D5F88030D3F89C70B3F972
:103CFC000E20B3F90C108A4201DA0132DA81B3F9E1
:103D0C000E20914201DA013ADA81B3F90E1001FB6F
:103D1C0007F1244D85FB01250D44C917C1EBE521A5
:103D2C00D3F89420511AC3F89410B3F91620B3F9B0
:103D3C001450AA4201DA0132DA82B3F91620954204
:103D4C0001DA013ADA82B3F9162002FB07F2154DBB
:103D5C0085FB02751544D217C2EBE52201F30F0166
:103D6C00C3F8941002F30F02C3F898205D6ADA6965
:103D7C0022F815105A6A01325A62196A8A420CD01A
:103D8C00D3F89830636023691844206100EBD0703D
:103D9C004010E0600023A36057E700225A62EFE76F
:103DAC00385B00088100088038B501460B4B186859
:103DBC000368DC680A4A53681268934209D003FB13
:103DCC0001F191FBF2F10133054D6B609A4200DA7F
:103DDC006A60A04701F00EF938BD00BFDC0000207E
:103DEC00D4000020002817DB40F6FF739842A8BFD0
:103DFC00184640F2FE73984210D9A0F2FF73B3F547
:103E0C00006F1AD840F6CC4000FB03F0002811DB01
:103E1C00C01200F2333070470020EAE740F233332F
:103E2C0003FB00F3064880FB0320C218D817C0EB35
:103E3C00A220704700F2FF70EAE70020704700BF35
:103E4C000102108010B5044649F6404303FB01F112
:103E5C000E4B83FB0123C917C1EBA311036A013B72
:103E6C00002911DD99420DDC094A1288481E00FB1D
:103E7C0002F0013B90FBF3F000B2A080FFF7B2FF21
:103E8C00E08010BD1946EFE70121EDE7D34D62103C
:103E9C00385B000810B5044608B2A080FFF7A2FFFB
:103EAC00E08010BD10B5044644F6206303FB01F11D
:103EBC000E4B83FB0123C917C1EBA311036A013B12
:103ECC00002911DD99420DDC094A1288481E00FBBD
:103EDC0002F0013B90FBF3F000B2A080FFF782FFF1
:103EEC00E08010BD1946EFE70121EDE7D34D6210DC
:103EFC00385B000810B5044608B2A080FFF772FFCB
:103F0C00E08010BD00281BDB40F6FF739842A8BF71
:103F1C00184640F66423984214D9A0F6652240F264
:103F2C009A539A4219D840F6CC4303FB02F30C4A3D
:103F3C0082FB0312D817C0EB622000F233307047BB
:103F4C000020E6E740F2333303FB00F3054A82FB23
:103F5C000312D817C0EBA22070470020704700BF97
:103F6C007D2F675B4F6A836210B5044642F2107373
:103F7C0003FB01F10E4B83FB0123C917C1EBA3110A
:103F8C00036A013B002911DD99420DDC094A1288B4
:103F9C00481E00FB02F0013B90FBF3F000B2A08046
:103FAC00FFF7B0FFE08010BD1946EFE70121EDE708
:103FBC00D34D6210385B000810B5044608B2A080DF
:103FCC00FFF7A0FFE08010BD70B510B102689268D9
:103FDC009047A02001F0D4FA0446284B036000253A
:103FEC0085802846FFF7FEFEE0806581A581E5818E
:103FFC006582A582E58204F11C06E56142F2341368
:10400C00236228460DB101F0B2FA0025E56142F2B7
:10401C003413736044F2682001F0AEFAE06165621B
:10402C00A562E56225636563A563E5632564656444
:10403C00A564E5642565656504F15806A565E56527
:10404C0025666566A566E56625676567A567E56708
:10405C00C4F88040C4F88450C4F88850C4F88C501C
:10406C00C4F89050064D294604F1300001F056F981
:10407C002946304601F052F9204670BDF45800082C
:10408C006C5A0008F8B510B1026892689047C820C5
:10409C0001F076FA0446354B0360002585802846EE
:1040AC00FFF730FFE0806581A581E5816582A582FF
:1040BC00E58204F11C06E5614FF4FA5323622846AD
:1040CC000DB101F054FA0025E5614FF4FA53736019
:1040DC004FF47A5001F050FAE0616562A562E56236
:1040EC0025636563A563E56325646564A564E56480
:1040FC002565656504F15807A565E5652566656662
:10410C00A566E56625676567A567E56704F1800622
:10411C00C4F88050C4F88450C4F88850C4F88C504B
:10412C00C4F89050C4F89450C4F89850C4F89C50FB
:10413C00C4F8A050C4F8A450C4F8A840C4F8AC50BB
:10414C00C4F8B050C4F8B450C4F8B850084D29465F
:10415C0004F1300001F0E2F82946384601F0DEF8AF
:10416C000449304601F0DAF82046F8BD54590008ED
:10417C00845A0008B45A000870B510B102689268ED
:10418C009047B02001F0FCF90446354B0360012048
:10419C00A080FFF727FE00B2E08020810023A381DE
:1041AC00E3812382A382E382238304F11C06E3616F
:1041BC004FF4FA532362002008B101F0D8F900251E
:1041CC00E5614FF4FA5373604FF47A5001F0D4F96F
:1041DC00E061236A6362A5620123E36228232363FF
:1041EC006363A56384F83C5025646564A564E56449
:1041FC0025656565A565E5652566656604F1680652
:10420C00A566E56625676567A567E567C4F8805010
:10421C00C4F88450C4F88850C4F88C50C4F890404A
:10422C00C4F89450C4F89850C4F89C50C4F8A050EA
:10423C000C4D294604F1400001F070F82946304637
:10424C0001F06CF8236A013B2BB1E269002122F8E2
:10425C001310013BF8E7E36900221A80204670BD79
:10426C00B45900089C5A000838B50446274B1B6803
:10427C00002B30D0264A1378013313706578234B0A
:10428C00186803685B6D9847854208D06378012BEA
:10429C0029D06378062B2CD06378022B2FD01B4DA2
:1042AC00286803681B6961889847286803689B69BC
:1042BC00A1889847286803681B6AE1889847286892
:1042CC0003681B6D9847134B00225A60104A1378F1
:1042DC00013B137038BD042001F052F90E4B036002
:1042EC000A4B1860C6E7094D2868FFF76DFE286079
:1042FC00CFE7064D2868FFF7C5FE2860CCE7034DD5
:10430C002868FFF739FF2860C9E700BFDC000020F0
:10431C0010000020D4000020145A000808B54FF6F5
:10432C00FF710120FFF714FA08BD00002DE9F041E0
:10433C0088B000240494059406940794364B9A692B
:10434C0042F010029A619A6902F010020092009AEF
:10435C009A6942F020029A619A6902F02002019255
:10436C00019A9A6942F004029A619A6902F0040275
:10437C000292029A9A6942F008029A619B6903F0D0
:10438C0008030393039BDFF8988001224FF400513C
:10439C004046FDF77EFA214E012211463046FDF7CC
:1043AC0078FA22464FF480713046FDF772FA4FF4DA
:1043BC00005304930125059506940227079704A939
:1043CC004046FDF773F94FF440430493059406956A
:1043DC0004A94046FDF76AF9049511230593069547
:1043EC00079704A93046FDF761F94FF480730493E5
:1043FC0005950694079704A93046FDF757F94FF435
:10440C00806304930594069504A93046FDF74EF994
:10441C0008B0BDE8F08100BF001002400008014068
:10442C000010014000B583B00A4B5A6942F00102FA
:10443C005A615B6903F001030193019B0022114651
:10444C000B20FCF701FE0B20FCF732FE03B05DF8ED
:10445C0004FB00BF0010024070B584B0002501952C
:10446C00029503950C4C0D4B2360A56025732575A7
:10447C004FF4C023E3616560012626612046FCF7FA
:10448C00D1FC082301930296039501A92046FCF761
:10449C00B7FA04B070BD00BF7002002000240140C8
:1044AC0070B584B00023019302930393164C174A02
:1044BC0022604FF48072A260237301252575A561DB
:1044CC004FF46022E2616360032626612046FCF70C
:1044DC00A9FC019502950623039301A92046FCF73C
:1044EC008FFA042301930223029301A92046FCF7BF
:1044FC0087FA072301930296039301A92046FCF740
:10450C007FFA04B070BD00BF0002002000280140FB
:10451C0030B58BB000240894099401940294039450
:10452C000494059406940794104D4FF080432B602F
:10453C006C60AC601123EB602C61AC612846FDF71C
:10454C00A5FE50230893099408A92846FDF7ECFF13
:10455C0030230193029402230393059404220DEB60
:10456C0002012846FDF7F6FE0BB030BD24030020F7
:10457C0070B58AB0002408940994019402940394B1
:10458C000494059406940794144D154B2B606C60A1
:10459C00AC60FF23EB602C61AC612846FDF78FFE0D
:1045AC000894099408A92846FDF7BEFF60230193DF
:1045BC00029403940426059622460DEB0601284628
:1045CC00FDF7F7FE32460DEB06012846FDF7F1FE2E
:1045DC00284600F09BFB0AB070BD00BF30020020E3
:1045EC000004004008B50848084B03604FF416530C
:1045FC00436000238360C36003610C2242618361CA
:10460C00C361FEF75DF808BDA00200200038014030
:10461C0030B595B000240C940D940F94109405941F
:10462C0006940794089409940194029403940494B6
:10463C0001220A924FF480330B930E9202251195AE
:10464C0012934FF4E01313930AA8FDF73FF90F23CD
:10465C000593069507944FF48063089309942946B3
:10466C0005A8FDF773FB0195039401A8FDF748FC21
:10467C0015B030BD08B5FCF70DF8FFF7C9FFFFF713
:10468C0055FEFFF7CFFEFFF7E7FEFFF709FFFFF739
:10469C003FFFFFF76DFFFFF7A5FF00F0B3F9002018
:1046AC0008BD7047704730B587B004460D46FCF71F
:1046BC00DFFE002302930495A37C059301A902A8B5
:1046CC00FCF7A2FFFCF7EEFE07B030BD70B50D464F
:1046DC001646FCF7CDFE0024072C09DC36F8022B1D
:1046EC00002329460120FCF71DFF02350234F3E7B5
:1046FC00FCF7D8FE70BD10B50446142100F03EFF47
:10470C00204610BD38B500F03FFC0546234B9842BF
:10471C0007D84C2000FB05F000F02EFF013D0146B0
:10472C001BE04FF0FF30F7E700238B870B64092B5E
:10473C0006D801EB43020024148501339BB2F6E743
:10474C000023A1F84430FF2281F84620012281F891
:10475C004720A1F848304C31013D002D0BDB0023E4
:10476C004B82082BE0DC03F1080201EB420200242F
:10477C0094800133F5E70A4B1860002400F004FC28
:10478C00A04208DD064B1A684C2303FB042383F874
:10479C0046400134F2E700F0A3FB38BD6B28AF01B3
:1047AC00CC0100202DE9F04F83B000F0BFFB0025B9
:1047BC0076E0002363828FE0B4F802A0514540F20A
:1047CC00B9806180A4F804A0B4E021898A4240F247
:1047DC00C18022816181BDE0E289934240F2C780B1
:1047EC00E3812282C3E0224652F80C0F009093889A
:1047FC00ADF80430234653F8061FE1609988918088
:10480C00D8F80020C4F80620B8F804209A80009844
:10481C00B851BDF80430A380A28823899A4202D8EB
:10482C00A1898B4211D9A1898B4201D39A420CD216
:10483C009A4240F2D0808B4280F0CD808A4200D3E5
:10484C000A46E388934200DB1346A28F04EB420036
:10485C00068D216C891B21640385013292B2A287DB
:10486C00092A01D90022A2879BB20B442364634A14
:10487C0082FB0312DB17C3EBA2039BB2A4F84430F8
:10488C0094F847205AB9B4F84820D31A002BB8BF73
:10489C005B42B3F5CD7F02DB012384F84730013551
:1048AC0000F072FBA84240F3A5804C2606FB05F6EF
:1048BC00534B1F68BC19A04694F8460000F05CFBF3
:1048CC00638A03F1080204EB4202908001339BB22D
:1048DC006382092B3FF46DAFB4F814A027F806A03F
:1048EC00B4F816B0A4F802B0218BA180B4F81AE089
:1048FC00A4F806E0B4F81C90A4F80890E28B62814E
:10490C00208CA081B4F822C0A4F80EC0A38C238202
:10491C00DA4503D227F806B0A4F802A037F806A0AF
:10492C0051457FF649AFB4F802B0A4F804B0A4F82E
:10493C0002A0B953CE4503D2A4F80690A4F808E01F
:10494C00E1888A427FF641AFB4F808E0A4F80AE0A7
:10495C002181E280604502D2A4F80CC0E081A289DA
:10496C0093427FF639AFE1892182E281A38162888B
:10497C0023899A4212D2D8F800000090B8F804307B
:10498C00ADF80430234653F8062FBA519A88A2800A
:10499C000098C4F80600BDF804209A80E389628868
:1049AC0093423FF620AF228993427FF635AF2246E1
:1049BC0052F8060F00909388ADF80430234653F854
:1049CC000C1FC4F80610998891800098E060BDF81F
:1049DC0004209A8020E79A42BFF437AF8B427FF6CF
:1049EC0034AF8A4200D80A46638993423FF72DAF11
:1049FC0013462AE703B0BDE8F08F00BF6766666612
:104A0C00CC01002000B585B0234B1A78234B1A70CB
:104A1C00FFF778FE00238DF808308DF80930ADF8DB
:104A2C000A30ADF80C30ADF80E30FFF7BBFE0123A9
:104A3C008DF809301A4B1B68B3F84420ADF80A20E6
:104A4C00B3F89020ADF80C20B3F8DC30ADF80E3094
:104A5C0002A8FFF709FC00F09DFA00F0D9FA4FF418
:104A6C007A70FBF73BFE0F4B186899889B7983B1E2
:104A7C000122FCF70EFFFDF78DFF0B4A1378013B6B
:104A8C001370FEF7BFF8094B1B78DBB28DF80730BB
:104A9C00F7E70022EDE700BF04F8FF1F0800002035
:104AAC00CC010020F400002010000020FC5A00086B
:104ABC0010B40023048A9C4205DD0C78944205D086
:104ACC0008310133F6E7002010BC70470846FBE7BD
:104ADC0010B504460B4B0360416093025818A0605C
:104AEC00DB082382A2740B78FF2B07D0FF226168AE
:104AFC002046FFF7DDFFE060204610BD6060A1603E
:104B0C00F4E700BFD45A000838B5012800D038BDEE
:104B1C004FF6FF739942FAD1084D022208492846F4
:104B2C00FFF7D6FF074B2B60074B084A1A604FF470
:104B3C0080729A8001229A71E9E700BFE0000020A0
:104B4C0000F00008EC5A0008F400002000080140B6
:104B5C0008B54FF6FF710120FFF7D6FF08BD08B569
:104B6C004FF6FF710020FFF7CFFF08BD82B00E4B50
:104B7C009A6942F001029A619A6902F0010200926C
:104B8C00009ADA6942F08052DA61DB6903F08053F3
:104B9C000193019B054A536823F0E06343F00073D3
:104BAC00536002B0704700BF00100240000001408B
:104BBC0010B588B0002304930593069307930368FC
:104BCC00364A934204D0364A934242D008B010BDC4
:104BDC000446344B9A6942F400729A619A6902F461
:104BEC0000720092009A9A6942F008029A619B69DD
:104BFC0003F008030193019B012304930323059302
:104C0C0004A92948FCF752FD2848294B03600023CE
:104C1C00436083608023C3604FF4807303614FF45F
:104C2C0080634361202383614FF44053C361FCF7DD
:104C3C0079FA58B91D4B23625C620022114612208E
:104C4C00FCF702FA1220FCF733FABFE7FFF729FD55
:104C5C00F0E7144B9A6942F480629A619A6902F403
:104C6C0080620292029A9A6942F004029A619B69EC
:104C7C0003F004030393039B9223049303230593F0
:104C8C0004A90C48FCF712FD002211461220FCF777
:104C9C00DBF91220FCF70CFA98E700BF0024014066
:104CAC000028014000100240000C0140E0020020EE
:104CBC0008000240000801400368B3F1804F00D0A7
:104CCC00704782B003F50433DA6942F00102DA610D
:104CDC00DB6903F001030193019B02B070470000F4
:104CEC000268094B9A4200D0704782B003F5033337
:104CFC00DA6942F00202DA61DB6903F00203019324
:104D0C00019B02B0704700BF0004004000B587B0A3
:104D1C00002302930393049305930268124B9A4267
:104D2C0002D007B05DF804FB03F503339A6942F037
:104D3C0008029A619B6903F008030193019B3023DD
:104D4C000293022303930323059302A90748FCF75C
:104D5C00ADFC074A536823F4406343F0E06343F42B
:104D6C0000635360DDE700BF00040040000C01400D
:104D7C000000014000B587B0002302930393049315
:104D8C0005930268164B9A4202D007B05DF804FBFB
:104D9C0003F558439A6942F480429A619A6902F485
:104DAC0080420092009A9A6942F004029A619B69CF
:104DBC0003F004030193019B4FF40073029312233D
:104DCC0003930323059302A90648FCF76FFC00220A
:104DDC0002212520FCF738F92520FCF769F9D4E7E6
:104DEC0000380140000801407047FEE7FEE7FEE78F
:104DFC00FEE770477047704708B5FBF75DFC08BDD0
:104E0C0008B50248FCF74AFA08BD00BFE0020020D2
:104E1C0008B50348FBF760FD0248FBF75DFD08BDD4
:104E2C00700200200002002008B50248FDF708FDC2
:104E3C0008BD00BFA00200200120704708B500F09B
:104E4C00F9FB162303604FF0FF3008BD08B54FF097
:104E5C00FF31FFF7F3FFFEE708B503460B4A126874
:104E6C0042B10A4A106803446A46934206D8074A7C
:104E7C00136008BD054A06491160F2E700F0DAFB41
:104E8C000C2303604FF0FF30F3E700BFFC00002061
:104E9C00680300200F4B1A6842F001021A6059682F
:104EAC000D4A0A405A601A6822F0847222F4803249
:104EBC001A601A6822F480221A605A6822F4FE02E0
:104ECC005A604FF41F029A60044B4FF000629A60D4
:104EDC00704700BF001002400000FFF800ED00E03A
:104EEC0008B50F4B1B6803B108BD0E4B18690E4B70
:104EFC0098420ED8400000F03FFB094B186009485F
:104F0C00FCF718F840B90748FBF716FE0128FAD150
:104F1C00EAE74FF0FF30EEE7FFF7C3FBF3E700BF24
:104F2C000001002000020020FCFFFF3F104B1B681B
:104F3C00EBB110B5002407E00E48FBF79BFC0C4BC3
:104F4C001B6823F8140001340A4B1B69A3420DDDC6
:104F5C000848FBF733FE0028F5D10A210548FBF77A
:104F6C00D1FB0028E8D0FFF79CFBE5E710BD7047AC
:104F7C000001002000020020024B1B6833F91000D6
:104F8C00704700BF00010020014B1869704700BF3B
:104F9C000002002008B5164B1B689B6913F0600FCC
:104FAC0012D1134B1B689B6913F4C04F11D1104BDA
:104FBC001B68DB6913F0600F10D10D4B1B68DB69AC
:104FCC0013F4C04F0FD108BD00210948FDF78EFA2C
:104FDC00E7E704210648FDF789FAE8E708210448C9
:104FEC00FDF784FAE9E70C210148FDF77FFAEAE7BF
:104FFC003002002000F30F0000F50040034B1B684B
:10500C00C2B25A63C0F30720986370473002002085
:10501C0008B50C48FBF78EFF58B964220A490948B9
:10502C00FBF742FE40B904210848FDF741FA30B9BC
:10503C0008BDFFF736FBF0E7FFF733FBF3E7FFF7AD
:10504C0030FBF5E77002002004010020240300204F
:10505C0008B50020FFF7CEFF08BD000008B50122FF
:10506C004FF400514948FCF714FC494B18885A88F6
:10507C0010449A881044DA8810441A8910445A89CA
:10508C0010449A891044DA8910441A8A10445A8AB6
:10509C0010449A8A1044DA8A10441A8B10445A8BA2
:1050AC0010449A8B1044DA8B10441A8C10445A8C8E
:1050BC0010449A8C1044DA8C10441A8D10445A8D7A
:1050CC0010449A8D1044DA8D10441A8E10445A8E66
:1050DC0010449A8E1044DA8E10441A8F10445A8F52
:1050EC0010449A8F1044DA8F1044B3F840201044C7
:1050FC00B3F842201044B3F844201044B3F84620CF
:10510C001044B3F848201044B3F84A201044B3F8C4
:10511C004C201044B3F84E201044B3F850201044E7
:10512C00B3F852201044B3F854201044B3F856206E
:10513C001044B3F858201044B3F85A201044B3F874
:10514C005C201044B3F85E201044B3F86020104487
:10515C00B3F86230184400EB001000EB00200D4B4C
:10516C00A3FB0030C0F34F30A0F500400A4B93F97D
:10517C00003043B9FEF718FE00224FF400510348EB
:10518C00FCF787FB08BDFFF763FFF5E70010014054
:10519C0004010020CD33A3991000002008B5012292
:1051AC004FF400515948FCF774FB594BB3F86400A9
:1051BC00B3F866201044B3F868201044B3F86A20A2
:1051CC001044B3F86C201044B3F86E201044B3F8BC
:1051DC0070201044B3F872201044B3F874201044BB
:1051EC00B3F876201044B3F878201044B3F87A2042
:1051FC001044B3F87C201044B3F87E201044B3F86C
:10520C0080201044B3F882201044B3F8842010445A
:10521C00B3F886201044B3F888201044B3F88A20E1
:10522C001044B3F88C201044B3F88E201044B3F81B
:10523C0090201044B3F892201044B3F894201044FA
:10524C00B3F896201044B3F898201044B3F89A2081
:10525C001044B3F89C201044B3F89E201044B3F8CB
:10526C00A0201044B3F8A2201044B3F8A42010449A
:10527C00B3F8A6201044B3F8A8201044B3F8AA2021
:10528C001044B3F8AC201044B3F8AE201044B3F87B
:10529C00B0201044B3F8B2201044B3F8B42010443A
:1052AC00B3F8B6201044B3F8B8201044B3F8BA20C1
:1052BC001044B3F8BC201044B3F8BE201044B3F82B
:1052CC00C0201044B3F8C2201044B3F8C4201044DA
:1052DC00B3F8C630184400EB001000EB00200D4B67
:1052EC00A3FB0030C0F34F30A0F500400A4B93F9FC
:1052FC00003043B9FEF758FD00224FF4005103482B
:10530C00FCF7C7FA08BDFFF7A3FEF5E70010014054
:10531C0004010020CD33A3991000002038B50546B8
:10532C000C460968E068FBF7CDF84FF08E41FBF7AF
:10533C0015F800F053F9FBF761F928602168206932
:10534C00FBF7C0F84FF08E41FBF708F800F046F978
:10535C00FBF754F9686021686069FBF7B3F84FF00C
:10536C008E41FAF7FBFF00F039F9FBF747F9A8601B
:10537C0021686068FBF7A6F84FF08E41FAF7EEFF54
:10538C0000F02CF9FBF73AF9E8602168A068FBF70C
:10539C0099F84FF08E41FAF7E1FF00F01FF9FBF797
:1053AC002DF92861284638BD2DE9F04F0468426874
:1053BC00D717D0F814E04FEAEE7902FB09F50EFB93
:1053CC000755A2FB0E232B444FEAD23C4CEA434C2C
:1053DC0001FB04C482684FEAE27983694FEAE37BFC
:1053EC0002FB0BF503FB0955A2FB03232B444FEAED
:1053FC00D23C4CEA434C6444C2684FEAE27BC76936
:10540C004FEAE77902FB09F507FB0B55A2FB0723D3
:10541C002B444FEAD23C4CEA434CA44405694FEA76
:10542C00E57B046A4FEAE47905FB09F204FB0B23E4
:10543C00A5FB04451D44E30B43EA45436344436227
:10544C00C0F818E0C903416107625A42C261002BDF
:10545C0004DB03F58043D813BDE8F08F03F57F53CD
:10546C003F33D813F8E72DE9F04F04684268D7179B
:10547C00D0F814E04FEAEE7902FB09F50EFB075564
:10548C00A2FB0E232B444FEAD23C4CEA434C01FBCB
:10549C0004C482684FEAE27983694FEAE37B02FB3A
:1054AC000BF503FB0955A2FB03232B444FEAD23C1B
:1054BC004CEA434C6444C2684FEAE27BC7694FEA4A
:1054CC00E77902FB09F507FB0B55A2FB07232B44DD
:1054DC004FEAD23C4CEA434CA44405694FEAE57BC5
:1054EC00046A4FEAE47905FB09F204FB0B23A5FBE4
:1054FC0004451D44E30B43EA454363444362C0F84F
:10550C0018E0C903416107625A42C261002B04DBF7
:10551C0003F58043D813BDE8F08F03F57F533F3379
:10552C00D813F8E7002103E00B4B5B5843500431D0
:10553C000A480B4B42189A42F6D30A4A02E000235F
:10554C0042F8043B084B9A42F9D3FFF7A3FC00F056
:10555C0077F8FFF78FF87047585B000800000020C1
:10556C007C0000208000002068030020FEE700F093
:10557C0021B808B500F02CF800F002B800F01AB809
:10558C0010B5002814BF04460124204600F07CF816
:10559C0030B900F007F808B900F044F88047F4E798
:1055AC0010BD0000024B1868BFF35B8F704700BF43
:1055BC00D001002000F070B808B5804700F032F838
:1055CC00024B1868BFF35B8F704700BF14000020BC
:1055DC0008B5FFF7F5FFFFF7EFFF0000C0F3C75367
:1055EC007F3B162B10B5014614DC002B07DA013378
:1055FC0000F0004101D141F07E51084610BD084A2F
:10560C001A411042F9D04FF480011941014421EAAA
:10561C000201F2E7802BF0D1FAF798FD0146ECE796
:10562C00FFFF7F0008B5062000F01CF90120FFF7F2
:10563C000DFC0000014B1868704700BF18000020DB
:10564C0070B500250C4E0D4CA41BA410A54209D11D
:10565C0000F026F900250A4E0A4CA41BA410A54202
:10566C0005D170BD56F8253098470135EEE756F850
:10567C00253098470135F2E73C5B00083C5B00089D
:10568C003C5B0008505B0008024B0146186800F0B8
:10569C0057B800BF18000020024B0146186800F0F4
:1056AC0003B800BF1800002038B50546002943D0C8
:1056BC0051F8043C0C1F002BB8BFE41800F0EEF8B6
:1056CC001E4A1368104633B9636014602846BDE85F
:1056DC00384000F0E4B8A3420BD921686218934219
:1056EC0001BF1A685B685218226063600460EDE7C2
:1056FC0013465A680AB1A242FAD919685818A0423E
:10570C000BD120680144581882421960DED1106810
:10571C005268014419605A60D8E702D90C232B60F7
:10572C00D4E7206821188A4201BF11685268091811
:10573C00216062605C60C9E738BD00BFD401002005
:10574C0070B5CD1C25F0030508350C2D38BF0C2584
:10575C00002D064601DBA94203D90C23336000203F
:10576C0070BD00F09BF8214A1468214691B9204C79
:10577C0023681BB9304600F03DF8206029463046BE
:10578C0000F038F8431C24D10C233046336000F071
:10579C0086F8E4E70B685B1B18D40B2B0FD90B6056
:1057AC00CC18CD50304600F07AF804F10B00231DD4
:1057BC0020F00700C31AD3D05A42E250D0E74B680E
:1057CC008C4216BF636013600C46EBE70C464968CD
:1057DC00CCE7C41C24F00304A04205D0211A3046A7
:1057EC0000F008F80130CFD02560DBE7D4010020B1
:1057FC00D801002038B50023054C05460846236027
:10580C00FFF72AFB431C02D1236803B12B6038BD80
:10581C00640300201F2938B504460D4604D916230D
:10582C0003604FF0FF3038BD426C12B152F821309A
:10583C004BB9204600F030F82A4601462046BDE818
:10584C00384000F017B8012B0AD0591C03D116238D
:10585C0003600120E7E70024284642F825409847DA
:10586C000020E0E7024B01461868FFF7D3BF00BFEA
:10587C001800002038B50023064C05460846114692
:10588C002360FFF7DBFA431C02D1236803B12B60C2
:10589C0038BD00BF64030020FFF7CEBA70477047D5
:1058AC00F8B500BFF8BC08BC9E467047F8B500BF01
:0858BC00F8BC08BC9E467047D1
:1058C40002030405060708090A0B0C0D0E0F10103D
:1058D4000102000002030405060708090A0B0C0D67
:1058E4000E0F101001020000000000000000000074
:1058F400CD390008E5390008053500083D3C0008AD
:105904000F350008173500081D3500082535000837
:10591400A13E00082B350008513E0008313500082F
:10592400ED340008EF340008F3340008F5340008BF
:10593400F9340008FB340008FF340008013500087E
:10594400693500086535000800000000000000000B
:10595400053A00081D3A0008D9350008753A0008D0
:10596400E3350008EB350008F1350008F935000887
:10597400C53F0008FF350008753F000805360008DC
:10598400ED340008EF340008F3340008F53400085F
:10599400F9340008FB340008FF340008013500081E
:1059A4003D36000839360008000000000000000001
:1059B4003D3A0008553A0008AD3600088D37000816
:1059C400B7360008BF360008C5360008CD360008D3
:1059D400013F0008D3360008B13E0008D93600085C
:1059E400ED340008EF340008F3340008F5340008FF
:1059F400F9340008FB340008FF34000801350008BE
:105A0400113700080D3700080000000000000000F6
:105A1400593700087D370008453700084F3700081C
:105A2400D5340008D7340008DB340008DD3400081E
:105A3400E1340008E3340008E7340008E9340008DE
:105A4400ED340008EF340008F3340008F53400089E
:105A5400F9340008FB340008FF340008013500085D
:105A640053370008553700085655D53F2EBDBB3374
:105A7400AAAAAA3E0000003F0000803F0000003FA9
:105A840093BDA63F0119E4BFDA84323FF8375F3D86
:105A9400F837DF3DF8375F3D5655D53F2EBDBB3354
:105AA400AAAAAA3E0000003F0000803F0000003F79
:105AB400EFC6B33F187996BF2272183FD00D533EFC
:105AC400D00DD33ED00D533E000000000000000076
