:020000040800F2
:1000000000500020A9560008B94E0008BB4E000859
:10001000BD4E0008BF4E0008C14E000800000000A1
:10002000000000000000000000000000C34E0008B7
:10003000C54E000800000000C74E0008C94E000869
:10004000F1560008F1560008F1560008F156000874
:10005000F1560008F1560008F1560008F156000864
:10006000F1560008F1560008F1560008D14E00087C
:10007000F1560008F1560008F1560008F156000844
:10008000F1560008F1560008E14E0008F15600084C
:10009000F1560008F1560008F1560008F156000824
:1000A000F1560008F1560008F1560008F156000814
:1000B000F1560008F1560008F1560008F156000804
:1000C000F1560008F1560008F1560008F1560008F4
:1000D000F1560008F94E0008F1560008F1560008E4
:1000E000F1560008F1560008F15600080000000023
:1000F0000000000000000000000000000000000000
:0C01000000000000000000005FF808F1A3
:10010C0010B5054C237833B9044B13B10448AFF345
:10011C0000800123237010BD780000200000000037
:10012C00245A000808B5034B1BB103490348AFF32D
:10013C00008008BD000000007C000020245A00084C
:10014C0080F0004002E000BF81F0004142001FBF80
:10015C005FEA410392EA030F7FEA226C7FEA236C89
:10016C006AD04FEA1262D2EB1363C1BFD21841407E
:10017C0048404140B8BF5B42192B88BF704710F014
:10018C00004F40F4000020F07F4018BF404211F0B7
:10019C00004F41F4000121F07F4118BF494292EA1F
:1001AC00030F3FD0A2F1010241FA03FC10EB0C004B
:1001BC00C3F1200301FA03F100F0004302D54942D8
:1001CC0060EB4000B0F5000F13D3B0F1807F06D385
:1001DC0040084FEA310102F10102FE2A51D2B1F17D
:1001EC00004F40EBC25008BF20F0010040EA030072
:1001FC007047490040EB000010F4000FA2F101021F
:10020C00EDD1B0FA80FCACF1080CB2EB0C0200FAA8
:10021C000CF0AABF00EBC25052421843BCBFD040F6
:10022C001843704792F0000F81F4000106BF80F470
:10023C0000000132013BB5E74FEA41037FEA226C33
:10024C0018BF7FEA236C21D092EA030F04D092F0FE
:10025C00000F08BF0846704790EA010F1CBF002032
:10026C00704712F07F4F04D1400028BF40F000408F
:10027C00704712F100723CBF00F50000704700F0AF
:10028C00004343F0FE4040F4000070477FEA2262D6
:10029C0016BF08467FEA23630146420206BF5FEAA7
:1002AC00412390EA010F40F4800070474FF00003A7
:1002BC0004E000BF10F0004348BF40425FEA000C6E
:1002CC0008BF704743F0964301464FF000001CE016
:1002DC0050EA010208BF70474FF000030AE000BF6C
:1002EC0050EA010208BF704711F0004302D54042AA
:1002FC0061EB41015FEA010C02BF8446014600201C
:10030C0043F0B64308BFA3F18053A3F50003BCFA36
:10031C008CF2083AA3EBC25310DB01FA02FC6344E3
:10032C0000FA02FCC2F12002BCF1004F20FA02F2EA
:10033C0043EB020008BF20F00100704702F12002DD
:10034C0001FA02FCC2F1200250EA4C0021FA02F23E
:10035C0043EB020008BF20EADC7070474FF0FF0C43
:10036C001CEAD0521EBF1CEAD15392EA0C0F93EA3E
:10037C000C0F6FD01A4480EA010C400218BF5FEAE0
:10038C0041211ED04FF0006343EA501043EA511153
:10039C00A0FB01310CF00040B1F5000F3EBF49004D
:1003AC0041EAD3715B0040EA010062F17F02FD2A51
:1003BC001DD8B3F1004F40EBC25008BF20F0010034
:1003CC00704790F0000F0CF0004C08BF49024CEA4B
:1003DC00502040EA51207F3AC2BFD2F1FF0340EADD
:1003EC00C250704740F400004FF00003013A5DDC4E
:1003FC0012F1190FDCBF00F000407047C2F100028F
:10040C00410021FA02F1C2F1200200FA02FC5FEA7B
:10041C00310040F1000053EA4C0308BF20EADC70C5
:10042C00704792F0000F00F0004C02BF400010F437
:10043C00000F013AF9D040EA0C0093F0000F01F0E4
:10044C00004C02BF490011F4000F013BF9D041EA06
:10045C000C018FE70CEAD15392EA0C0F18BF93EA08
:10046C000C0F0AD030F0004C18BF31F0004CD8D132
:10047C0080EA010000F00040704790F0000F17BFB9
:10048C0090F0004F084691F0000F91F0004F14D0FF
:10049C0092EA0C0F01D142020FD193EA0C0F03D157
:1004AC004B0218BF084608D180EA010000F000405A
:1004BC0040F0FE4040F40000704740F0FE4040F435
:1004CC00400070474FF0FF0C1CEAD0521EBF1CEAD4
:1004DC00D15392EA0C0F93EA0C0F69D0A2EB0302F2
:1004EC0080EA010C49024FEA402037D04FF080538C
:1004FC0043EA111143EA10130CF000408B4238BF51
:10050C005B0042F17D024FF4000C8B4224BF5B1A5E
:10051C0040EA0C00B3EB510F24BFA3EB510340EAAC
:10052C005C00B3EB910F24BFA3EB910340EA9C005A
:10053C00B3EBD10F24BFA3EBD10340EADC001B01CA
:10054C0018BF5FEA1C1CE0D1FD2A3FF650AF8B426E
:10055C0040EBC25008BF20F0010070470CF0004C7B
:10056C004CEA50207F32C2BFD2F1FF0340EAC250A6
:10057C00704740F400004FF00003013A37E792F067
:10058C00000F00F0004C02BF400010F4000F013AC5
:10059C00F9D040EA0C0093F0000F01F0004C02BFC0
:1005AC00490011F4000F013BF9D041EA0C0195E729
:1005BC000CEAD15392EA0C0F08D142027FF47DAFC2
:1005CC0093EA0C0F7FF470AF084676E793EA0C0FB2
:1005DC0004D14B023FF44CAF08466EE730F0004CB0
:1005EC0018BF31F0004CCAD130F000427FF45CAF40
:1005FC0031F000437FF43CAF5FE700BF4FEA4002AD
:10060C00B2F1FE4F0FD34FF09E03B3EB12620DD934
:10061C004FEA002343F0004310F0004F23FA02F09E
:10062C0018BF404270474FF00000704712F1610F45
:10063C0001D1420205D110F0004008BF6FF000401C
:10064C0070474FF00000704710B504460E4B1878F9
:10065C004FF47A73B3FBF0F30C4A1068B0FBF3F071
:10066C0000F034FD68B90F2C01D901200AE00022FA
:10067C0021464FF0FF3000F0E7FC054B1C600020DA
:10068C0000E0012010BD00BF000000200C00002085
:10069C000400002008B5074A136843F010031360E8
:1006AC00032000F0BFFC0120FFF7CEFF04F0C0FADE
:1006BC00002008BD00200240034A1168034B1B7840
:1006CC000B441360704700BFC402002000000020E0
:1006DC00014B1868704700BFC402002038B50446AF
:1006EC00FFF7F6FF0546B4F1FF3F02D0044B1B7831
:1006FC001C44FFF7EDFF401BA042FAD338BD00BFEE
:10070C0000000020F0B583B005460C460023019391
:10071C00FFF7DEFF2B689A6812F4807F23D1064620
:10072C005A6812F4807F03D1DB6A13F4700F24D063
:10073C004B4B1F68022001F06DFCB7FBF0F02B68EF
:10074C001969484A11422FD1D96802F15C42114211
:10075C002AD11969444A114239D1DA68434B1A42F9
:10076C0037D029273AE0AB6A43F02003AB62002371
:10077C0085F82430012003B0F0BD2B681B6813F002
:10078C00020F48D1B4F1FF3FF7D024B1FFF7A0FF1F
:10079C00801BA042F1D9AB6A43F00403AB62002387
:1007AC0085F824300320E6E719692F4A114204D159
:1007BC00D96802F16E4211420DD019692C4A0A40D7
:1007CC005AB9DA682A4B13405BB1FC2706E029279B
:1007DC0004E0142702E0542700E0FC2707FB00F795
:1007EC0004E05427FAE7019B01330193019BBB42C0
:1007FC0011D2B4F1FF3FF6D024B1FFF769FF801B93
:10080C00A042F0D9AB6A43F00403AB62002385F835
:10081C0024300320AFE72B686FF012021A60AB6A2A
:10082C0043F40073AB622B689B6803F46023B3F54D
:10083C00602F01D000209EE72B7B6BB9AB6A23F4B1
:10084C008073AB62AB6A13F4805F07D1AB6A43F081
:10085C000103AB6200208EE700208CE700208AE7C2
:10086C000C0000202449922492244912922449001D
:10087C00499224000368D86C704708B5436A9A6A99
:10088C0012F0500F03D01B6A1B6B984708BD9A6A75
:10089C0042F400729A621A68926802F46022B2F50D
:1008AC00602F03D0184604F077FCEFE71A7B002A80
:1008BC00F8D19A6A22F480729A629A6A12F4805F72
:1008CC00F0D19A6A42F001029A62EBE708B5406AED
:1008DC0004F0C2FB08BD704710B5044603685A68A3
:1008EC0012F0200F18D01A6812F0020F14D0826A7E
:1008FC0012F0100F03D1826A42F4007282629A687D
:10090C0002F46022B2F5602F38D0204604F044FC8B
:10091C0023686FF012021A6023685A6812F0800F75
:10092C0022D01A6812F0040F1ED0A26A12F0100F17
:10093C0003D1A26A42F40052A2629A6802F4E04225
:10094C00B2F5E04F31D05A6812F4806F05D19A6835
:10095C0002F46022B2F5602F24D0204600F060FB38
:10096C0023686FF00C021A6023685A6812F0400F6B
:10097C0003D01B6813F0010F28D110BD227B002A75
:10098C00C3D15A6822F020025A60A36A23F4807300
:10099C00A362A36A13F4805FB7D1A36A43F0010387
:1009AC00A362B2E7227B002AD7D15A6822F08002D8
:1009BC005A60A36A23F48053A362A36A13F4807F62
:1009CC00CBD1A36A43F00103A362C6E7A36A43F445
:1009DC008033A3622046FFF77EFF23686FF001028D
:1009EC001A60CAE7704708B5406A836A43F040034F
:1009FC008362C36A43F00403C362FFF7F3FF08BDCD
:100A0C0030B482B00023019390F82430012B00F015
:100A1C008B800246012380F824304B68062B29D8A2
:100A2C000568686B03EB8303053B1F249C4020EA9D
:100A3C0004000C6804FA03F303436B630B68092B83
:100A4C0038D91568E86803EB43031E3B07249C4028
:100A5C0020EA04008C6804FA03F30343EB600B6890
:100A6C00103B012B34D90020002382F8243002B033
:100A7C0030BC70470C2B0ED80568286B03EB830336
:100A8C00233B1F249C4020EA04000C6804FA03F367
:100A9C0003432B63D2E70568E86A03EB8303413B0E
:100AAC001F249C4020EA04000C6804FA03F303435F
:100ABC00EB62C3E71568286903EB430307249C40EA
:100ACC0020EA04008C6804FA03F303432B61C6E7A5
:100ADC0013681648834205D0936A43F0200393624F
:100AEC000120C1E7986810F4000F1BD1986840F4FE
:100AFC00000098600B68102B01D00020B4E70C4B61
:100B0C001B680C49A1FB03139B0C03EB83035900DB
:100B1C00019102E0019B013B0193019B002BF9D158
:100B2C000020A1E700209FE70220A0E7002401405D
:100B3C000C00002083DE1B43806A704730B583B005
:100B4C000023019303689A6812F0010F2ED19A6862
:100B5C0042F001029A60174B1B68174AA2FB032351
:100B6C009B0C019302E0019B013B0193019B002B29
:100B7C00F9D10446FFF7ACFD054623689B6813F0DA
:100B8C00010F11D1FFF7A4FD401B0228F5D9A36A70
:100B9C0043F01003A362E36A43F00103E362002312
:100BAC0084F82430012002E0002000E0002003B093
:100BBC0030BD00BF0C00002083DE1B4390F82430B6
:100BCC00012B6AD010B50446012380F82430FFF7BE
:100BDC00B5FF024600285BD1A36A23F4407323F0CF
:100BEC00010343F48073A36223682D498B4227D001
:100BFC00A16A21F48011A162596811F4806F05D0AB
:100C0C00A16A21F4405141F48051A162A16A11F40E
:100C1C00805F2BD0E16A21F00601E162002184F8AB
:100C2C0024106FF0020119602368996801F46021A7
:100C3C00B1F5602F1DD0996841F4801199602AE0BC
:100C4C00A1F58061496811F4702FD1D0A16A41F4EB
:100C5C008011A1621349496811F4806FD6D0A16A42
:100C6C0021F4405141F48051A162CFE70021E162AF
:100C7C00D4E70B498B4204D0996841F4A0019960E8
:100C8C0009E0A1F58061496811F4702FD3D1F3E725
:100C9C00002384F82430104610BD02221046704701
:100CAC000028014000240140F8B50468454DAC42D1
:100CBC005BD0454B9C4258D090F82440012C7ED000
:100CCC0016460D460446012380F82430FFF736FF04
:100CDC00074600286ED1A36A23F4706323F0010346
:100CEC0043F48073A3622268374B9A4244D0A36AC0
:100CFC0023F48013A362536813F4806F05D0A36AA6
:100D0C0023F4405343F48053A362A36A13F4805F2B
:100D1C0048D0E36A23F00603E362002384F824300E
:100D2C00236A2A4A9A62236A294ADA62236A294A7E
:100D3C001A6323686FF002021A602268936843F406
:100D4C0080739360216833462A464C31206A00F048
:100D5C001FFA2268936803F46023B3F5602F24D044
:100D6C00936843F48013936027E0164B5B6813F48D
:100D7C00702FA1D0012720E0A3F580635B6813F4EA
:100D8C00702FB4D0A36A43F48013A3620D4B5B683D
:100D9C0013F4806FB9D0A36A23F4405343F4805307
:100DAC00A362B2E70023E362B7E7936843F4A003BE
:100DBC00936002E0002384F824303846F8BD022703
:100DCC00FBE700BF00240140002801408708000811
:100DDC00D9080008F309000838B503689A6812F0BE
:100DEC00010F01D1002038BD04469A6822F001029F
:100DFC009A60FFF76DFC054623689B6813F0010FA2
:100E0C000ED0FFF765FC401B0228F5D9A36A43F00E
:100E1C001003A362E36A43F00103E3620120E2E7FB
:100E2C000020E0E700287FD038B50446836A002B09
:100E3C0033D02046FFF7D0FFA36A13F010036DD117
:100E4C0000286BD1A26A22F4885222F0020242F0EE
:100E5C000202A2626268E1690A43257B42EA45020A
:100E6C00A168B1F5807F21D001291CD0217D0129F9
:100E7C001FD02568696821F469410B436B602168B8
:100E8C008D682A4B2B4013438B60A368B3F5807F8E
:100E9C0020D0012B1ED000211FE0C36280F824302B
:100EAC0003F0E8FEC5E74FF48073DFE74FF480737F
:100EBC00DCE735B9A169013943EA413343F40063F6
:100ECC00D7E7A16A41F02001A162E16A41F001017A
:100EDC00E162CEE72369013B19052568EB6A23F42F
:100EEC0070030B43EB6223689968114B0B409A42D9
:100EFC000BD0A36A23F0120343F01003A362E36A3E
:100F0C0043F00103E36201200DE00023E362A36AD6
:100F1C0023F0030343F00103A36204E0A36A43F04C
:100F2C001003A362012038BD01207047FDF7E1FFDB
:100F3C00FE0E1FFF70B582B00023019390F8243091
:100F4C00012B68D00446012380F82430FFF744FFBE
:100F5C00054628B1002384F82430284602B070BD21
:100F6C00A36A23F4885323F0020343F00203A36221
:100F7C002A4B1E68022001F04DF8B6FBF0F0400041
:100F8C00019002E0019B013B0193019B002BF9D1E5
:100F9C002046FFF7D3FD2268936843F00803936063
:100FAC00FFF796FB064623689A6812F0080F0FD0DD
:100FBC00FFF78EFB801B0A28F5D9A36A23F01203D6
:100FCC0043F01003A362002384F824300125C4E706
:100FDC009A6842F004029A60FFF77AFB064623688F
:100FEC009B6813F0040F0FD0FFF772FB801B0A28CD
:100FFC00F5D9A36A23F0120343F01003A362002374
:10100C0084F824300125A8E7A36A23F0030343F0F6
:10101C000103A3629EE702259FE700BF0C0000209E
:10102C0070470000074AD36823F4E0631B041B0CD1
:10103C00000200F4E060184340F0BF6040F4003060
:10104C00D060704700ED00E030B4174BDB68C3F3A1
:10105C000223C3F10704042C28BF04241D1D062DF4
:10106C0018D9033B4FF0FF3505FA04F421EA0401CB
:10107C00994005FA03F322EA0303194300280BDB1A
:10108C000901C9B200F1604000F5614080F800131D
:10109C0030BC70470023E5E700F00F000901C9B22E
:1010AC00024B1954F4E700BF00ED00E014ED00E032
:1010BC00002807DB00F01F02400901239340024A7D
:1010CC0042F82030704700BF00E100E00138B0F179
:1010DC00807F0AD2064B5860064AF02182F8231012
:1010EC000020986007221A6070470120704700BFEB
:1010FC0010E000E000ED00E070B4066CC56B01245C
:10110C00B4406C60046863604368102B05D00368BE
:10111C0099600368DA6070BC704703689A60036872
:10112C00D960F8E760B310B402460168154B0B4464
:10113C001548A0FB03031B099B001364134BD363DB
:10114C00022382F82130086820F47F5020F0300010
:10115C00536894682343D468234314692343546924
:10116C00234394692343D469234303430B60002036
:10117C009063012382F8213082F8200010BC704764
:10118C0001207047F8FFFDBFCDCCCCCC0000024055
:10119C0038B590F82040012C32D0012480F8204042
:1011AC0090F82140012C04D0002380F8203002203C
:1011BC0038BD0446022084F821000020A063256875
:1011CC00286820F0010028602046FFF795FFE36AAD
:1011DC005BB12268136843F00E0313602268136836
:1011EC0043F0010313600020E2E72268136823F048
:1011FC00040313602268136843F00A031360EDE7DD
:10120C000220D5E708B590F82130022B03D0042337
:10121C008363012008BD0268136823F00E0313607A
:10122C000268136823F0010313600368194A9342A0
:10123C0014D0143293421FD0143293421ED0143265
:10124C0093421ED0143293421ED01432934202D0D9
:10125C004FF0807203E04FF4801200E001220E4B3D
:10126C005A60012380F82130002380F82030436B32
:10127C006BB198470020CDE71022F0E74FF4807255
:10128C00EDE74FF48052EAE74FF48032E7E70020B5
:10129C00C0E700BF080002400000024038B5C36B35
:1012AC001A6804682568016C04238B40134235D0FE
:1012BC0015F0040F32D0236813F0200F03D12368EC
:1012CC0023F0040323600368434A934214D014327E
:1012DC00934218D01432934217D01432934217D041
:1012EC001432934217D01432934202D04FF08062E2
:1012FC0003E04FF4800200E00422384B5A60C36ACA
:10130C0003B1984738BD4022F7E74FF48062F4E709
:10131C004FF48042F1E74FF48022EEE702238B403A
:10132C0013423CD015F0020F39D0236813F0200F74
:10133C0006D1236823F00A032360012380F82130AF
:10134C000368254A934214D0143293421CD01432B1
:10135C0093421BD0143293421BD0143293421BD0B5
:10136C001432934202D04FF0007203E04FF400129B
:10137C0000E00222194B5A60002380F82030836A67
:10138C00002BBFD09847BDE72022F3E74FF4007243
:10139C00F0E74FF40052EDE74FF40032EAE7082390
:1013AC0003FA01F11142ADD015F0080FAAD0236851
:1013BC0023F00E032360026CC16B012303FA02F2CB
:1013CC004A60836380F82130002380F82030036B5F
:1013DC00002B97D0984795E7080002400000024088
:1013EC00044B0022DA61044A136943F001031361D0
:1013FC0001807047C8020020002002401A4BDB68B5
:10140C0013F0100F27D0194AD36943F00203D361AC
:10141C001023154AD26812F0040F06D01349CA697A
:10142C0042F00102CA6143F004030F4AD26912F080
:10143C00010F09D00D49CA6942F00402CA610A4978
:10144C00CA6922F00102CA6140F20112934204D02F
:10145C00054AD36070470023DBE7034AD36923F0C6
:10146C000103D361704700BF00200240C802002076
:10147C000A4B1B6913F0800F0DD0084B084A5A60B9
:10148C0002F188325A601B6913F0800F01D00120E1
:10149C007047002070470020704700BF00200240BA
:1014AC0023016745034A136943F08003136100204D
:1014BC00704700BF0020024038B50446FFF708F91A
:1014CC000546174BDB6813F0010F0AD0B4F1FF3F50
:1014DC00F7D00CB3FFF7FCF8401BA042F1D9032066
:1014EC0019E00F4BDB6813F0200F02D00C4B2022BD
:1014FC00DA600B4BDB6813F0100F09D1084BDB697A
:10150C0013F0010F04D1064BDB6813F0040F05D068
:10151C00FFF774FF012038BD0320FCE70020FAE739
:10152C00002002402DE9F843234C247E012C41D0AD
:10153C001E4690460F4604461F4B01221A764CF26B
:10154C005030FFF7B9FF034670BB012C29D0022C99
:10155C0024D04FF0040900244C4525D22101C1F1BF
:10156C002002A1F1200328FA01F106FA02F211433C
:10157C0026FA03F3194389B207EB4400FFF730FF57
:10158C004CF25030FFF798FF0C4B1D6925F001050C
:10159C001D61034640B90134E4B2DDE74FF00209A6
:1015AC00D9E74FF00109D6E7034A00211176184616
:1015BC00BDE8F8830223FAE7C802002000200240AD
:1015CC00064B0022DA61064B1A6942F004021A61DA
:1015DC001A6942F040021A61704700BFC80200202D
:1015EC0000200240064B0022DA61064B1A6942F0D9
:1015FC0002021A6158611A6942F040021A6170477E
:10160C00C802002000200240264B1B7E012B46D036
:10161C0070B50E460446234B01221A760368022B42
:10162C0020D04CF25030FFF747FF90BB4FF0FF3308
:10163C003360A5680122E168A36803EB8123AB4208
:10164C0028D92846FFF7CEFF4CF25030FFF734FF75
:10165C00154A136923F0020313610246B8B905F564
:10166C008065E8E74CF25030FFF726FF08B1012205
:10167C0010E00120FFF7A4FF4CF25030FFF71CFFE5
:10168C00024609490B6923F004030B6102E0356043
:10169C0000E00122034B00211976104670BD022296
:1016AC0010467047C802002000200240F0B482B0FF
:1016BC0000263246A2E0002D5AD0012D00D1CE6872
:1016CC00FF2B69D88446FF2B69D89500DCF80040C5
:1016DC000F27AF4024EA070406FA05F52C43CCF893
:1016EC0000404C6814F0805F00F087805F4CA56967
:1016FC0045F00105A561A46904F001040194019C65
:10170C009508AF1C5A4C54F8274002F00307BF0051
:10171C004FF00F0C0CFA07FC24EA0C0C554CA042B1
:10172C0043D004F58064A04200F0818004F580640D
:10173C00A0427ED004F58064A04234D0042435E06D
:10174C004D4FBD4214D00BD94C4FBD4210D007F5B4
:10175C008037BD420CD0A7F58017BD42B0D107E051
:10176C00A7F58017BD4203D007F58037BD42A7D13E
:10177C008D687DB1012D08D044610826A0E7CE68A4
:10178C0008369DE7CE680C369AE70461082697E781
:10179C00002695E7042693E700F1040C93E7A2F1E9
:1017AC000805AD0092E7032400E00024BC4044EAA5
:1017BC000C0402352E4F47F825404C6814F4803F3A
:1017CC0039D02F4D2C681C432C604C6814F4003F0E
:1017DC0037D02B4D6C681C436C604C6814F4801F24
:1017EC0035D0274DAC681C43AC604C6814F4001F1A
:1017FC0033D0234DEC682343EB6001320B6833FA92
:10180C0002F430D00124944023409C42F5D14D6821
:10181C00122DB7D094D8022DB1D07FF64CAF032D3A
:10182C00B6D0112D7FF44CAFCE68043648E70124B6
:10183C00BCE70224BAE7124D2C6824EA03042C609E
:10184C00C3E70F4D6C6824EA03046C60C5E70C4DCC
:10185C00AC6824EA0304AC60C7E7094DEC6824EAE1
:10186C000303EB60C9E702B0F0BC70470010024004
:10187C000000014000080140000021100000311060
:10188C00000401408368194201D1002070470120F7
:10189C00704712B90904016170470161704700007B
:1018AC0082B0084B1B68084AA2FB03235B0A00FBAF
:1018BC0003F0019000BF019B5A1E0192002BF9D13D
:1018CC0002B070470C000020D34D6210002800F0CD
:1018DC00F58170B582B00446036813F0010F2CD06B
:1018EC00AB4B5B6803F00C03042B1DD0A84B5B685F
:1018FC0003F00C03082B12D06368B3F5803F41D082
:10190C00002B55D103F1804303F504331A6822F4FC
:10191C0080321A601A6822F480221A6037E09C4BDD
:10192C005B6813F4803FE7D0994B1B6813F4003FBE
:10193C0003D06368002B00F0C381236813F0020FFF
:10194C0076D0934B5B6813F00C0F5FD0904B5B68B9
:10195C0003F00C03082B54D02369002B00F08A8071
:10196C008C4B01221A60FEF7B3FE0546884B1B68B0
:10197C0013F0020F75D1FEF7ABFE401B0228F5D910
:10198C000320A0E1824A136843F480331360636838
:10199C0043B3FEF79DFE05467D4B1B6813F4003FD9
:1019AC00CBD1FEF795FE401B6428F5D903208AE1C4
:1019BC00B3F5A02F09D0764B1A6822F480321A6046
:1019CC001A6822F480221A60E1E703F18043A3F540
:1019DC003C331A6842F480221A601A6842F480324E
:1019EC001A60D4E7FEF774FE0546694B1B6813F4C6
:1019FC00003FA2D0FEF76CFE401B6428F5D90320F3
:101A0C0061E1634B5B6813F4803FA5D1604B1B68AD
:101A1C0013F0020F04D02369012B01D0012052E1F5
:101A2C005B4A136823F0F803616943EAC10313604E
:101A3C00236813F0080F32D0A369002B5BD0564BF0
:101A4C0001221A60FEF744FE0546514B5B6A13F007
:101A5C00020F21D1FEF73CFE401B0228F5D90320D2
:101A6C0031E14B4A136823F0F803616943EAC1037F
:101A7C001360DDE7474B00221A60FEF729FE05468E
:101A8C00434B1B6813F0020FD2D0FEF721FE401B14
:101A9C000228F5D9032016E10120FFF701FF236886
:101AAC0013F0040F00F09880394BDB6913F0805F62
:101ABC0033D1374BDA6942F08052DA61DB6903F0DB
:101ACC0080530193019B0125344B1B6813F4807FD9
:101ADC0025D0E368012B36D0002B4CD103F1804389
:101AEC0003F504331A6A22F001021A621A6A22F010
:101AFC0004021A622CE0284B00221A60FEF7E8FD63
:101B0C000546234B5B6A13F0020FC8D0FEF7E0FDCD
:101B1C00401B0228F5D90320D5E00025D4E71F4A45
:101B2C00136843F480731360FEF7D2FD06461B4B1B
:101B3C001B6813F4807FCCD1FEF7CAFD801B642890
:101B4C00F5D90320BFE0124A136A43F00103136274
:101B5C00E3687BB3FEF7BCFD06460D4B1B6A13F026
:101B6C00020F38D1FEF7B4FD801B41F28833984246
:101B7C00F3D90320A7E0052B12D0054B1A6A22F0EB
:101B8C0001021A621A6A22F004021A62E0E700BF2C
:101B9C0000100240000042428004424200700040AB
:101BAC004C4B1A6A42F004021A621A6A42F00102A1
:101BBC001A62CDE7FEF78CFD0646464B1B6A13F006
:101BCC00020F08D0FEF784FD801B41F28833984247
:101BDC00F3D9032077E0E5B9E369002B72D03D4AD5
:101BEC00526802F00C02082A56D0022B17D03A4B3E
:101BFC0000221A60FEF76CFD0446364B1B6813F08E
:101C0C00007F47D0FEF764FD001B0228F5D90320A6
:101C1C0059E0304AD36923F08053D361DCE72E4B73
:101C2C0000221A60FEF754FD05462A4B1B6813F080
:101C3C00007F06D0FEF74CFD401B0228F5D903208F
:101C4C0041E0236AB3F5803F1AD022494B6823F454
:101C5C007413226A606A024313434B601E4B0122C9
:101C6C001A60FEF735FD04461A4B1B6813F0007F13
:101C7C000ED1FEF72DFD001B0228F5D9032022E022
:101C8C00144A536823F40033A1680B435360DCE718
:101C9C00002018E0002016E0012B16D00D4B5B68DD
:101CAC0003F48031226A914201D001200BE003F44D
:101CBC007013626A93420AD0012004E0012070473D
:101CCC00012000E0002002B070BD0120FBE70020E5
:101CDC00F9E700BF001002406000424210B487B028
:101CEC00164C94E80F000DF1180C0CE90F00238A28
:101CFC00ADF80430124B5B6803F00C02082A1AD1C1
:101D0C00C3F38342624412F8102C13F4803F05D1C4
:101D1C000C4800FB02F007B010BC7047084B5B6826
:101D2C00C3F34043634413F8143C074800FB02F030
:101D3C00B0FBF3F0EFE70448EDE700BF3C5A0008B6
:101D4C000010024000093D0000127A00002800F04B
:101D5C00A38070B50446524B1B6803F007038B42FB
:101D6C000CD24F4A136823F007030B43136013681C
:101D7C0003F007038B4201D0012070BD236813F0E0
:101D8C00020F17D013F0040F04D0464A536843F4E3
:101D9C00E0635360236813F0080F04D0414A536882
:101DAC0043F4605353603F4A536823F0F003A06838
:101DBC00034353600D46236813F0010F31D0636861
:101DCC00012B20D0022B25D0364A126812F0020FBC
:101DDC0064D034494A6822F0030213434B60FEF787
:101DEC0077FC06462F4B5B6803F00C036268B3EB81
:101DFC00820F16D0FEF76CFC801B41F288339842A0
:101E0C00F0D90320B9E7274A126812F4003FE0D159
:101E1C000120B2E7234A126812F0007FD9D10120C9
:101E2C00ABE71F4B1B6803F00703AB420CD91C4AF2
:101E3C00136823F007032B431360136803F00703A5
:101E4C00AB4201D0012098E7236813F0040F06D0B1
:101E5C00144A536823F4E063E1680B43536023682E
:101E6C0013F0080F07D00F4A536823F4605321690D
:101E7C0043EAC1035360FFF731FF0A4B5B68C3F3BE
:101E8C000313094AD35CD840084B1860084B1868F8
:101E9C00FEF7DAFB002070E70120704701206CE7A9
:101EAC000020024000100240E45B00080C000020FF
:101EBC0004000020014B1868704700BF0C00002084
:101ECC0008B5FFF7F7FF044B5B68C3F30223034A23
:101EDC00D35CD84008BD00BF00100240F45B000882
:101EEC0008B5FFF7E7FF044B5B68C3F3C223034A53
:101EFC00D35CD84008BD00BF00100240F45B000862
:101F0C0070B582B00446036813F0010F34D03E4B19
:101F1C00DB6913F0805F48D13B4BDA6942F08052A9
:101F2C00DA61DB6903F080530193019B0125374B88
:101F3C001B6813F4807F3AD0334B1B6A13F4407345
:101F4C0011D0626802F440729A420CD02E4A136A85
:101F5C0023F440702E4901260E6000260E6010629C
:101F6C0013F0010F37D1284A136A23F440736168C8
:101F7C000B431362002D3FD1236813F0020F06D0E0
:101F8C00214A536823F44043A1680B4353602368F0
:101F9C0013F0100F35D01C4A536823F48003E1680A
:101FAC000B435360002002B070BD0025BFE7174AF9
:101FBC00136843F480731360FEF78AFB0646134BD9
:101FCC001B6813F4807FB7D1FEF782FB801B64285B
:101FDC00F5D90320E7E7FEF77BFB06460A4B1B6AA5
:101FEC0013F0020FBFD1FEF773FB801B41F2883355
:101FFC009842F3D90320D6E7D36923F08053D361F9
:10200C00BAE70020CFE700BF00100240007000408C
:10201C004004424230B587B00546384C94E80F0076
:10202C000DF1180C0CE90F00238AADF80430022DC9
:10203C0050D0102D03D0012D2BD0002054E0304B6C
:10204C005A681B6813F0807F50D0C2F3834306A9F3
:10205C000B4413F8100C12F4803F16D0284B5B681D
:10206C00C3F340430B4413F8142C264BB3FBF2F38D
:10207C0000FB03F0224B5B6813F4800F34D140005B
:10208C00214BA3FB003040082EE0204B03FB00F05B
:10209C00F0E71B4B1B6A40F202321A40B2F5817F0B
:1020AC0026D003F44073B3F5007F04D0B3F5407F22
:1020BC0009D0002018E0124A526A12F0020FF5D033
:1020CC0049F6404010E00E4B1B6813F4003F12D150
:1020DC00002009E0FFF704FF094B5B68C3F3813371
:1020EC0001335B00B0FBF3F007B030BD0020FBE721
:1020FC004FF40040F8E74FF22440F5E7505A00083F
:10210C000010024000127A00ABAAAAAA00093D00F6
:10211C0070B4036A23F001030362036A42688469A2
:10212C0024F073040D6845EA040623F002048B685E
:10213C0023430D4DA84209D00B4DA8420DD042604F
:10214C0086614A684263036270BC704723F00803DF
:10215C00CC68234323F00403EEE722F440724C696D
:10216C0014438A692243EAE7002C014030B4036A25
:10217C0023F480730362036A4268C46924F0730415
:10218C000D682C4323F400738D6843EA05230F4D2F
:10219C00A84209D00D4DA8420ED04260C4614A68D5
:1021AC00C263036230BC704723F40063CD6843EA1A
:1021BC00052323F48063EDE722F440524D6942EA93
:1021CC0005128D6942EA0512E7E700BF002C0140B9
:1021DC0030B4036A23F480530362036A4468C2690F
:1021EC0022F4E6420D6842EA052223F400538D687E
:1021FC0043EA0533074DA84206D04460C2614A68E1
:10220C000264036230BC704724F480444D6944EA94
:10221C008514F2E7002C014003681B4A90420AD057
:10222C00B0F1804F07D0A2F59432904203D002F562
:10223C008062904203D123F070034A681343124A20
:10224C0090420AD0B0F1804F07D0A2F59432904260
:10225C0003D002F58062904203D123F44073CA6824
:10226C00134323F080034A69134303608B68C362F2
:10227C000B688362044B984202D001234361704780
:10228C000B690363F9E700BF002C0140A8B110B53E
:10229C00044690F83D305BB1022384F83D30211D9B
:1022AC002068FFF7B9FF012384F83D30002010BDF2
:1022BC0080F83C3002F062FDEEE701207047A8B1D7
:1022CC0010B5044690F83D305BB1022384F83D30E4
:1022DC00211D2068FFF7A0FF012384F83D3000206A
:1022EC0010BD80F83C3002F05DFDEEE70120704738
:1022FC0030B4036A23F010030362036A44688269F2
:10230C0022F4E6420D6842EA052223F020038D6890
:10231C0043EA05130E4DA84209D00D4DA8420ED02C
:10232C00446082614A688263036230BC704723F068
:10233C008003CD6843EA051323F04003EDE724F452
:10234C0040644D6944EA85048D6944EA8504E7E7F5
:10235C00002C014090F83C30012B28D010B50446DD
:10236C00012380F83C30022380F83D300C2A0BD836
:10237C00DFE802F0070A0A0A110A0A0A150A0A0A11
:10238C0019000068FFF7C4FE012384F83D300020DB
:10239C0084F83C0010BD0068FFF7AAFFF4E7006862
:1023AC00FFF7E4FEF0E70068FFF712FFECE702200E
:1023BC00704738B590F83C30012B66D00D4604467A
:1023CC00012380F83C30022380F83D300C2A1AD8C7
:1023DC00DFE802F0071919192019191934191919FC
:1023EC0047000068FFF794FE2268936943F00803E6
:1023FC0093612268936923F00403936122689369C3
:10240C0029690B439361012384F83D30002084F843
:10241C003C0038BD0068FFF76BFF2268936943F4FA
:10242C00006393612268936923F48063936122684B
:10243C009369296943EA01239361E4E70068FFF794
:10244C0095FE2268D36943F00803D3612268D369EF
:10245C0023F00403D3612268D36929690B43D36148
:10246C00D1E70068FFF7B4FE2268D36943F4006338
:10247C00D3612268D36923F48063D3612268D36962
:10248C00296943EA0123D361BDE70220C1E710B4F7
:10249C0001F01F01012303FA01F4036A23EA040388
:1024AC000362036A8A401343036210BC7047000046
:1024BC0010B5044601220068FFF7E9FF23680A4AB9
:1024CC0093420BD02268936803F00703062B03D0CA
:1024DC00136843F001031360002010BD5A6C42F4E2
:1024EC0000425A64EEE700BF002C014010B50446D0
:1024FC0001220068FFF7CBFF23680A4A93420BD0F6
:10250C002268936803F00703062B03D0136843F08B
:10251C0001031360002010BD5A6C42F400425A644F
:10252C00EEE700BF002C014090F83C30012B1CD092
:10253C0070B4012680F83C60022380F83D300268BC
:10254C005568936825F070050C682C4323F08005C2
:10255C004B682B4354600268936080F83D60002305
:10256C0080F83C30184670BC7047022070470268F7
:10257C00D36823F49073D3600268536923F001038A
:10258C005361202380F83A30704790F83930DBB231
:10259C00212B2AD18368B3F5805F16D0036A5A1CAD
:1025AC0002621A7803685A60C38C013B9BB2C384E5
:1025BC00EBB90268D36823F08003D3600268D36858
:1025CC0043F04003D36000207047036A1B88026805
:1025DC00C3F30803536003691BB9036A0233036234
:1025EC00E2E7036A01330362DEE702207047002052
:1025FC007047000038B504460268136923F4405351
:10260C00C1680B43136183680269134342691A431F
:10261C000168CB6823F4B05323F00C031343CB6055
:10262C000268536923F4407381690B435361026858
:10263C00214B9A421FD0FFF743FC00EB800000EBCC
:10264C00800063689B00B0FBF3F01C4DA5FB0032CF
:10265C005109642202FB110213013233A5FB03233F
:10266C005B0903F0F00202EB011203F00F03216887
:10267C0013448B6038BDFFF733FC00EB800000EB9C
:10268C00800063689B00B0FBF3F00C4DA5FB00329F
:10269C005109642202FB110213013233A5FB0323FF
:1026AC005B0903F0F00202EB011203F00F03216847
:1026BC0013448B60DEE700BF003801401F85EB51EF
:1026CC00002830D010B5044690F8393033B32423A9
:1026DC0084F839302268D36823F40053D360204641
:1026EC00FFF788FF2268136923F490431361226873
:1026FC00536923F0220353612268536943F00803A2
:10270C0053612268D36843F40053D3600020E06324
:10271C00202384F8393084F83A3010BD80F83830F2
:10272C0002F08AFBD3E70120704790F83A30DBB215
:10273C00202B20D109B312B390F83830012B20D0C4
:10274C0081628285C2850023C363222280F83A20ED
:10275C0080F838300168CA6842F48072CA60016837
:10276C004A6942F001024A610168CA6842F02002DB
:10277C00CA6018467047022070470120704701203C
:10278C00704702207047704708B50168CB6823F08A
:10279C004003CB60202380F83930FFF7F4FF002092
:1027AC0008BD08B590F83A30DBB2222B45D18368CE
:1027BC00B3F5805F0ED0036903BB03685A68836A64
:1027CC00591C81621A70C38D013B9BB2C385F3B156
:1027DC00002033E0826A036943B903685B68C3F382
:1027EC0008031380836A02338362ECE703685B6837
:1027FC00DBB21380836A01338362E4E703685B68AE
:10280C00826A511C816203F07F031370DBE702685C
:10281C00D36823F02003D3600268D36823F4807359
:10282C00D3600268536923F001035361202380F8BD
:10283C003A3002F06FFE002000E0022008BD704725
:10284C0010B5044602681368D168526913F00F0082
:10285C0005D113F0200F02D011F0200F53D1002816
:10286C0067D012F0010202D111F4907F61D013F005
:10287C00010F06D011F4807F03D0E06B40F0010013
:10288C00E06313F0040F04D01AB1E06B40F00200C7
:10289C00E06313F0020F04D01AB1E06B40F00400B7
:1028AC00E06313F0080F04D01AB1E26B42F0080297
:1028BC00E263E26B002A48D013F0200F02D011F033
:1028CC00200F24D123685B6903F04003E26B12F004
:1028DC00080F00D13BB32046FFF749FE23685A6925
:1028EC0012F0400F1BD05A6922F040025A61636B00
:1028FC008BB11A4A5A63606BFEF784FC28B3606B89
:10290C00436B984721E02046FFF74BFF1DE0204624
:10291C00FFF747FFD6E72046FFF791FF15E020466B
:10292C00FFF78DFF11E02046FFF789FF0023E363DB
:10293C000BE013F0800F02D011F0800F06D113F0D2
:10294C00400F02D011F0400F04D110BD2046FFF70C
:10295C001CFEFAE72046FFF717FFF6E76D29000883
:10296C0008B5406A0023C385C384FFF768FF08BD20
:10297C00012800D070474FF6FF739942FAD110B47A
:10298C0085B00023524A5382082B08DC03F108015E
:10299C004F4A02EB4102002191800133F4E74C4A8B
:1029AC00002393871364092B07D8494A02EB43028F
:1029BC000021118501339BB2F5E7454A0023A2F8AB
:1029CC004430012182F8461082F84730A2F85A3080
:1029DC00082B09DC03F108013D4A02EB41020021FE
:1029EC00A2F84C100133F3E7394A0023A2F88430E3
:1029FC00C2F88830092B08D8354A02EB4302002173
:102A0C00A2F8701001339BB2F4E7314A0023A2F80C
:102A1C008C30012182F88E1082F88F10A2F8A2302F
:102A2C00082B09DC03F10801294A02EB41020021C1
:102A3C00A2F894100133F3E7254A0023A2F8CC3016
:102A4C00C2F8D030092B08D8214A02EB43020021EE
:102A5C00A2F8B81001339BB2F4E71D4B0022A3F887
:102A6C00D420012283F8D620022283F8D720194BD8
:102A7C00002806DB00221A609A809A71083301380C
:102A8C00F6E7144B00221A745A749A740121D97403
:102A9C00114C02944FF48041ADF80C108DF80E20BF
:102AAC0004A911E9030018609980090C997100942C
:102ABC004FF40041ADF804108DF806206A4692E8F8
:102ACC00030098609981090C997305B010BC70478C
:102ADC00940000206C0100200010014010B503464A
:102AEC00044C012222700846984702F0C3FC0023D4
:102AFC00237010BD9D0200202DE9F04F83B00546D8
:102B0C00994F00EBC003DE00BC19A04694F84700B7
:102B1C0002F094FA638A03F1080204EB42029080FB
:102B2C0001339BB26382092B77D0B4F814A027F839
:102B3C0006A0B4F816B0A4F802B0218BA180B4F8AA
:102B4C001AE0A4F806E0B4F81C90A4F80890E28B04
:102B5C006281208CA081B4F822C0A4F80EC0A38C92
:102B6C002382DA4503D227F806B0A4F802A037F87E
:102B7C0006A0514554D9B4F802B0A4F804B0A4F896
:102B8C0002A0B953CE4503D2A4F80690A4F808E0ED
:102B9C00E1888A424CD9B4F808E0A4F80AE0218113
:102BAC00E280604502D2A4F80CC0E081A289934275
:102BBC0044D9E1892182E281A381628823899A42E6
:102BCC0011D2D8F800000090B8F80430ADF80430F9
:102BDC00234653F8062FBA519A88A280C4F80600EF
:102BEC00BDF804209A80E389628893422CD822890C
:102BFC00934241D9224652F8060F00909388ADF8C3
:102C0C000430234653F80C1FC4F8061099889180A1
:102C1C00E060BDF804209A802EE00023638284E7F4
:102C2C00B4F802A05145ADD96180A4F804A0A9E77D
:102C3C0021898A42B5D922816181B2E7E289934226
:102C4C00BBD9E3812282B8E7224652F80C0F0090E0
:102C5C009388ADF80430234653F8061FE160998839
:102C6C009180D8F80020C4F80620B8F804209A8087
:102C7C00B851BDF80430A380A28823899A4202D8A7
:102C8C00A1898B420FD9A1898B4201D39A420AD2D6
:102C9C009A4233D98B4231D28A4200D30A46E38816
:102CAC00934200DB1346A28F04EB4200068D216C8D
:102CBC00891B21640385013292B2A287092A01D9AA
:102CCC000022A2879BB20B442364284A82FB031286
:102CDC00DB17C3EBA20399B294F84620D2B9B4F82F
:102CEC004420531A002BB8BF5B42B3F5CD7F13DBE6
:102CFC00A4F84410012384F846300DE09A42D2D255
:102D0C008B42D0D98A4200D80A4663899342CADCE6
:102D1C001346C8E7A4F8441094F84630A3B1B4F8AD
:102D2C00441005EBC503DA000F4B134493F84630FF
:102D3C008BB15DB1012D11D0022D0CD10C4B18684B
:102D4C000368DB69984706E00021EAE7084B18683E
:102D5C000368DB68984703B0BDE8F08F044B186834
:102D6C0003685B699847F6E794000020676666661F
:102D7C00B401002010B50A20FDF7B0FC02F038F9C0
:102D8C00002402F063F9A04205DD21462B48FFF731
:102D9C00A5FE0134F5E72A4B1B686BB1284B1B6869
:102DAC00052B44D0264B1B68013345D4052B00DD85
:102DBC000023234A136010BD224CA1882068FEF723
:102DCC0061FDA379ABB1012814BF00200120A8B18B
:102DDC001C4B01225A741B4A137C517C5B1A18BF82
:102DEC00012393741174002BD8D013460122DA748A
:102DFC00D4E710F1FF3018BF0120E8E7114CA1898E
:102E0C00A068FEF73FFDA37B43B1012814BF00204F
:102E1C00012040B10B4B02225A74DCE710F1FF3059
:102E2C0018BF0120F5E7074B03225A74D3E70021A2
:102E3C000548FFF753FEB5E70523BAE7052B000855
:102E4C00800100206C0100201D3700080023022B9C
:102E5C0009DC03EBC302D100054A0A44002182F8C5
:102E6C0046100133F3E7034B0022DA74704700BFBE
:102E7C00940000206C0100200023022B09DC03EBE2
:102E8C00C302D100054A0A44012182F846100B44C2
:102E9C00F3E7034B0122DA74704700BF9400002063
:102EAC006C0100202DE9F04385B08DF80700974B9D
:102EBC0018680368DB6A98479DF80730984200F061
:102ECC001884934B00221A70FFF7D6FF0DF1070000
:102EDC0001F010FC8D4B1C682368DD688D4E96F854
:102EEC00470002F0ABF8738A03F1080206EB4202CA
:102EFC00908001339BB27382092B7CD0854BB3F845
:102F0C001480A3F80080B3F81690A3F80290188BE5
:102F1C009880B3F81AC0A3F806C0B3F81CE0A3F865
:102F2C0008E0D98B59811E8C9E815F8CDF819A8C35
:102F3C001A82C84503D2A3F80090A3F80280754BFF
:102F4C00B3F80080404559D9B3F80290A3F8049027
:102F5C00A3F802801880F44504D26E4BA3F806E067
:102F6C00A3F808C06B4BD888814252D9B3F808C07B
:102F7C00A3F80AC01881D980BE4202D2654B9F814A
:102F8C00DE81644B99898A424BD9D8891882D981C0
:102F9C009A81604B5A881B899A4211D25D4B93E8F7
:102FAC00030006460290ADF80C101A4652F8060FB4
:102FBC00186091889980C3F80660BDF80C30938036
:102FCC00544BDA895B889A4233D8524B1B899A420C
:102FDC0047D9504B02A91A4652F8060F0290908816
:102FEC00ADF80C00D868C3F80600188A908003C9A5
:102FFC00D860198235E0002272827FE7454B5B88EE
:10300C009842A8D9DFF80C81A8F80200A8F804307F
:10301C00A1E7404B1B899942AED93E4801814381BF
:10302C00AAE73C4BDB899A42B3D93A49CA810B8255
:10303C00AFE7384B03F10C0696E803000290ADF8AD
:10304C000C101A4652F8060FD8609188B180186897
:10305C00C3F806009988918004AA12E9030018604D
:10306C0099802C4B9A881B899A4203D829498989C3
:10307C008B4211D9274989898B4201D39A420BD2B1
:10308C009A4236D98B4234D28A4200D30A46214B1B
:10309C00DB88934200DB13461E498A8F01EB420604
:1030AC00378D086CC01B3385013292B28A87092A8E
:1030BC0002D90A46002191879BB2034415490B643F
:1030CC00154A82FB0302DB17C3EBA20398B291F8FB
:1030DC0046201ABBB1F84420131A002BB8BF5B4230
:1030EC00B3F5CD7F1DDBA1F84400012281F8462009
:1030FC0017E09A42D0D28B42CED98A4200D80A46E7
:10310C00044B5B899342C7DC1346C5E7B40100202E
:10311C009C0200209400002067666666B24BA3F800
:10312C004400B14B93F84630002B00F0B880AE4B06
:10313C00B3F844102046A847AC4B1C6823685D6963
:10314C00A94E96F88F0001F079FFB6F85A3003F1CA
:10315C00080206EB4202A2F84C0001339BB2A6F81F
:10316C005A30092B00F09D809F4BB3F85C80A3F87C
:10317C004880B3F85E90A3F84A90B3F86000A3F8C7
:10318C004C00B3F862C0A3F84EC0B3F864E0A3F8E7
:10319C0050E0B3F86610A3F85210B3F86860A3F8C7
:1031AC005460B3F86A70A3F85670B3F86C20A3F8A7
:1031BC005820C84503D2A3F84890A3F84A808A4BFC
:1031CC00B3F84880404570D9B3F84A90A3F84C90B6
:1031DC00A3F84A80A3F84800F44504D2824BA3F824
:1031EC004EE0A3F850C0804BB3F84E00814268D932
:1031FC00B3F850C0A3F852C0A3F85000A3F84E1077
:10320C00BE4204D2784BA3F85470A3F85660764BA8
:10321C00B3F854108A425FD9B3F85600A3F858009B
:10322C00A3F85610A3F854206F4BB3F84A20B3F808
:10323C0050309A4213D26C4A02F1480696E80300C9
:10324C0007460290ADF80C10134653F84E0F9064DD
:10325C009988B180C2F84E70BDF80C209A80624BF0
:10326C00B3F85620B3F84A309A4240D85E4BB3F8C4
:10327C0050309A4255D95C4B02A91A4652F84E0F5F
:10328C0002909088ADF80C00586DC3F84E00B3F85E
:10329C005800908003C95865A3F8581041E00021EC
:1032AC0048E70022A6F85A205EE74F4BB3F84A30A5
:1032BC00984291D9DFF83081A8F84A00A8F84C3030
:1032CC008AE7494BB3F85030994299D94648A0F84F
:1032DC005010A0F8523093E7434BB3F856309A4253
:1032EC00A2D94149A1F85620A1F858309CE73E4B91
:1032FC0003F1540696E803000290ADF80C101A4640
:10330C0052F84E0F58659188B180986CC3F84E00F6
:10331C00B3F84C10918004AA12E903009864A3F846
:10332C004C10314BB3F84C20B3F850309A4204D8BF
:10333C002D49B1F854108B4213D92B49B1F85410C4
:10334C008B4201D39A420CD29A423ED98B423CD248
:10335C008A4200D30A46244BB3F84E30934200DB2A
:10336C0013462149B1F8842001EB4206B6F870707F
:10337C00D1F88800C01BA6F87030013292B2A1F8C7
:10338C008420092A03D90A460021A2F884109BB292
:10339C0003441549C1F88830154A82FB0302DB1738
:1033AC00C3EBA20398B291F88E201ABBB1F88C2013
:1033BC00131A002BB8BF5B42B3F5CD7F1DDBA1F810
:1033CC008C00012281F88E2017E09A42C9D28B42E0
:1033DC00C7D98A4200D80A46034BB3F852309342FD
:1033EC00BFDC1346BDE700BF94000020B4010020F1
:1033FC0067666666C14BA3F88C00C04B93F88E30A1
:10340C00002B00F0BA80BD4BB3F88C102046A847B7
:10341C00BB4B1C682368DD69B84E96F8D70001F0E9
:10342C000DFEB6F8A23003F1080206EB4202A2F838
:10343C00940001339BB2A6F8A230092B00F09F80B8
:10344C00AE4BB3F8A480A3F89080B3F8A690A3F881
:10345C009290B3F8A800A3F89400B3F8AAC0A3F80C
:10346C0096C0B3F8ACE0A3F898E0B3F8AE10A3F8AC
:10347C009A10B3F8B060A3F89C60B3F8B270A3F8DC
:10348C009E70B3F8B420A3F8A020C84503D2A3F8CB
:10349C009090A3F89280994BB3F89080404572D9E4
:1034AC00B3F89290A3F89490A3F89280A3F89000AC
:1034BC00F44504D2914BA3F896E0A3F898C08F4B37
:1034CC00B3F8960081426AD9B3F898C0A3F89AC0B1
:1034DC00A3F89800A3F89610BE4204D2874BA3F829
:1034EC009C70A3F89E60854BB3F89C108A4261D9FE
:1034FC00B3F89E00A3F8A000A3F89E10A3F89C209C
:10350C007E4BB3F89220B3F898309A4213D27B4A90
:10351C00D2F89410D2F89070ADF80C10134653F802
:10352C00960FC2F890009988A2F89410C2F8967081
:10353C00BDF80C209A80714BB3F89E20B3F89230F2
:10354C009A4242D86D4BB3F898309A425AD96B4B89
:10355C0002A91A4652F8960F02909088ADF80C000A
:10356C00D3F89C00C3F89600B3F8A000908003C970
:10357C00C3F89C00A3F8A01044E0002146E7002209
:10358C00A6F8A2205CE75D4BB3F8923098428FD935
:10359C00DFF86881A8F89200A8F8943088E7574BB8
:1035AC00B3F89830994297D95448A0F89810A0F8DD
:1035BC009A3091E7514BB3F89E309A42A0D94F49BB
:1035CC00A1F89E20A1F8A0309AE74C4B03F19C0681
:1035DC0096E803000290ADF80C101A4652F8960FBC
:1035EC00C3F89C009188B180D3F89000C3F8960082
:1035FC00B3F89410918004AA12E90300C3F8900068
:10360C00A3F894103D4BB3F89420B3F898309A4239
:10361C0004D83A49B1F89C108B4213D93749B1F808
:10362C009C108B4201D39A420CD29A423ED98B42C7
:10363C003CD28A4200D30A46304BB3F896309342C0
:10364C0000DB13462D49B1F8CC2001EB4206B6F84D
:10365C00B870D1F8D000C01BA6F8B830013292B2C5
:10366C00A1F8CC20092A03D90A460021A2F8CC10D3
:10367C009BB203442149C1F8D030224A82FB030299
:10368C00DB17C3EBA20398B291F8D620E2B9B1F8DC
:10369C00D420131A002BB8BF5B42B3F5CD7F16DBD9
:1036AC00A1F8D400012281F8D62010E09A42C9D2A8
:1036BC008B42C7D98A4200D80A46104BB3F89A30CD
:1036CC009342BFDC1346BDE70C4BA3F8D4000B4B65
:1036DC0093F8D63083B1094BB3F8D4102046A847E1
:1036EC00074B1A6801231371074A00215160074ADE
:1036FC00137005B0BDE8F0830021EFE794000020C3
:10370C00B401002067666666AC0100209C020020B4
:10371C0010B50B4B5C7CDB7C2BB1012C04D0032C47
:10372C0006D0022C08D010BD0220FFF7BBFBF6E739
:10373C000120FFF7B7FBF4E70620FFF7B3FBF2E736
:10374C006C01002008B54FF6FF710120FFF710F94E
:10375C0008BD000003787F2B0ED041780A4A1278FE
:10376C00914201D000207047012B07D0062B07D0C7
:10377C00022B07D0002070470120704701207047B2
:10378C0001207047012070470800002010B5084B3D
:10379C00002283F8D620074C23681A68526AB0F9C5
:1037AC00041018469047236801221A7110BD00BFFF
:1037BC0094000020B401002008B5FFF75DFB08BDA4
:1037CC0010B40023048A9C4205DD0C78944205D089
:1037DC0008390133F6E7002010BC70470846FBE7B8
:1037EC0030B583B0044608461D464968038A03F188
:1037FC000053013B01EBC301FFF7E2FF30B102685C
:10380C00436822606360204603B030BD6B46286875
:10381C00696803C3FF2203F8082D03CB20606160A5
:10382C00F1E7000070B586B0C2781D4B1B6803EB46
:10383C00830359000A4400230393049303AB92B20D
:10384C00184901A8FFF7CCFF9DF80430FF2B24D0BA
:10385C00154D00262E70FFF7F9FA9DF8053006A8D5
:10386C0000F8013D00F046FF104C20680368DB684F
:10387C00BDF806109847206803685B69BDF808100E
:10388C00984720680368DB69BDF80A1098472268DE
:10389C0001231371064A56602B7006B070BD00BF31
:1038AC0084010020B80100209C020020B4010020FB
:1038BC00AC01002000B583B00346C2781E2A0FDC91
:1038CC0008490A60186800909B88ADF80430002302
:1038DC008DF803306846FFF7A5FF03B05DF804FBD5
:1038EC001E22EDE78401002038B504464268836847
:1038FC0043608260C360002500E00135FE2D16DCBC
:10390C00A168238A03F10053013BAAB201EBC30166
:10391C002046FFF755FF02460028EED023689B682F
:10392C00E16820469847E3680833E360E5E72368DD
:10393C00DB68A1682046984738BD10B5044603687B
:10394C009B680A46C1689847E3680833E36062687D
:10395C00218A02EBC102934200D210BD2046FFF730
:10396C00C3FFFAE710B582B0C278134B1B6803EBA8
:10397C008303590053188DF80030104C20680368ED
:10398C00DB6A98478DF80100206803681B6998472B
:10399C00ADF80200206803689B699847ADF80400F5
:1039AC00206803681B6A9847ADF80600694604480E
:1039BC00FFF7C3FF02B010BD84010020B40100204A
:1039CC00B801002008B503685B68984708BD002063
:1039DC007047704700207047704700207047704751
:1039EC00002070477047002070470020704708B5D2
:1039FC0003685B68984708BD09B28181C181704733
:103A0C00B0F90C00704709B28182C1827047B0F9DD
:103A1C0014007047B0F9060070470000B0F906209A
:103A2C00036A023B03FB02F3094880FB03201844A2
:103A3C00DB17C3EBE0234FF47A7003FB0000054B5C
:103A4C001A6802EBD272521090FBF2F0704700BF72
:103A5C0081000880FC5B00080120704708B50368F2
:103A6C005B68984708BD09B28181C1817047B0F984
:103A7C000C00704709B28182C1827047B0F9140002
:103A8C007047B0F906007047B0F90620036A023B94
:103A9C0003FB02F30A4880FB03201844DB17C3EB3B
:103AAC00E0234FF47A7003FB0000064B1A68002ADF
:103ABC0003DB921090FBF2F070470332F9E700BF82
:103ACC0081000880FC5B00080620704708B503687D
:103ADC005B68984708BD09B2C18101827047B0F993
:103AEC000E00704709B2C18201837047B0F916000D
:103AFC007047B0F906007047B0F90620436A023BE4
:103B0C0003FB02F3094880FB03201844DB17C3EBCB
:103B1C00E0234FF47A7003FB0000054B1A6802EBAC
:103B2C00D272521090FBF2F0704700BF81000880F7
:103B3C00FC5B00080220704770470000012800D091
:103B4C0070474FF6FF739942FAD1034B4FF4FA6268
:103B5C001A605A60F4E700BFAC01002010B50446AF
:103B6C00082101F0C7FD204610BD000070B50446C9
:103B7C00303001F036FD734B1B68022B0DDC7249A3
:103B8C000A6810440860714A116801336D4A136069
:103B9C0004F15C0001F025FD70BD6B4B1A681044FC
:103BAC0018600146002824DB89102379A3B3B4F9EB
:103BBC000E302382B4F916302383B4F90820236A1B
:103BCC00013B581E00FB02F0614A82FB00521518A3
:103BDC00C217C2EBE522013200D10122934200D27E
:103BEC001A46E2623BB1E269002022F81300013B65
:103BFC00F8E7C11CD8E7E36900221A80636AE26A1D
:103C0C009B1ADB03A362002BC0F28580DA13002A17
:103C1C00C0F283800023237104F11C05B4F9080061
:103C2C00226A013A531E03FB00F3494880FB0360F0
:103C3C001844DB17C3EBE023013300D101239A4274
:103C4C0000D31A46E262EA68002A6BDBD313E06900
:103C5C0030F91300AE68F61A3346002E67DBDB032F
:103C6C002E6993FBF6F31A44EA60002A62DBD31345
:103C7C006E68B34202D3A2EBC632EA60B4F91030DC
:103C8C00B4F90E20934201DA01332382B4F91030D7
:103C9C009A4201DA013B2382B4F9103003FB00F3A2
:103CAC002B4A82FB03521A44DB17C3EBE223C91ADB
:103CBC00B4F91830B4F91620934201DA0133238396
:103CCC00B4F918309A4201DA013B2383B4F9182075
:103CDC0002FB00F21E4D85FB02351544D217C2EBD8
:103CEC00E52504F1880001F07CFC00F30F00626A0A
:103CFC00E36923F81200636A01336362226A934218
:103D0C001DD005F30F01114B196000230E4A1360EF
:103D1C000C4A13603CE7DA1379E7226A03EBC233EF
:103D2C00A36277E702F5FF467F36F3138FE76B68E4
:103D3C00334494E702F5FF437F33DB1398E700230A
:103D4C006362DEE79C0100209401002098010020B2
:103D5C008100088070B50446443001F042FC8C4B65
:103D6C001B68002B11DD8B4B1A681044186000EB9C
:103D7C00D0704010237913B3636A013B7BB1226A84
:103D8C00002122F81310013BF8E782490A6810441D
:103D9C000860814A116801337D4A1360F2E0226A9F
:103DAC0000231380E36201222263B4F908206281AC
:103DBC00B4F910206282B4F918206283237104F1E3
:103DCC002003B4F90A20B4F908108A4201DA01324E
:103DDC006281B4F90A20914201DA013A6281B4F9A4
:103DEC000A20616A653901FB02F16C4A82FB0152BF
:103DFC005518CA17C2EBE522643259688A4200DDB5
:103E0C004A1E002A0FDD996891420EDD256A05EBEA
:103E1C00420519689E6801EB4601A94205D90021AB
:103E2C0025F8021BF5E70122EDE79A60D9688A4272
:103E3C0001DC013ADA60E16AA26A656B521B01325D
:103E4C0091426BD0AA1E914274D0226A32F91110A1
:103E5C0094F840206AB1A66B06FB01F292FBF5F1D7
:103E6C00E26B1644A663B2F1FF3F6FD0E26B012AFE
:103E7C0071D0B4F91220B4F91050AA4201DA01320F
:103E8C006282B4F91220954201DA013A6282B4F9E5
:103E9C00125001FB05F5414E86FB05262E44ED170D
:103EAC00C5EBE625451BB4F91A20B4F9180082427B
:103EBC0001DA01326283B4F91A20904201DA013A34
:103ECC006283B4F91A2002FB01F2344981FB02012E
:103EDC008818D117C1EBE02105F30F0501F30F0191
:103EEC002DB2D8689A68904203DB0022DA60012276
:103EFC001A61DA68002A34DBD868226A22F810507A
:103F0C001A69D8680244DA60986882422EDA002A6C
:103F1C0031DA0022DA6001221A612CE0226B002ACD
:103F2C0090DD6A1EA2634FF0FF32E263012284F837
:103F3C00402087E7226B002A87DA6A1EA2634FF0C3
:103F4C00FF32E263012284F840207EE7002E8DD1FF
:103F5C000122E2638AE7B5428BD1002284F840202B
:103F6C0087E70022DA6001221A61C5E70138D860C0
:103F7C004FF0FF321A61084B19600023054A136099
:103F8C00034A136004F1700001F02BFB70BD00BFFD
:103F9C0090010020880100208C0100208100088005
:103FAC0010B50446034B0360C06908B101F09BFBDC
:103FBC00204610BDA85A000810B50446054B0360F6
:103FCC00C06908B101F08FFB8821204601F092FBFB
:103FDC00204610BDA85A000810B50446034B0360D8
:103FEC00C06908B101F07FFB204610BDE45A0008FF
:103FFC0010B50446054B0360C06908B101F073FBB2
:10400C00B421204601F076FB204610BDE45A00088E
:10401C0010B50446034B0360006A08B101F063FB62
:10402C00204610BD205B000810B50446054B03600C
:10403C00006A08B101F057FB9C21204601F05AFBA5
:10404C00204610BD205B000870B50446303001F0EE
:10405C00C8FA704B1B68002B2BDD6F4B1A68104491
:10406C00186000EBD07040102379002B3CD0B4F9D1
:10407C000E302382B4F916302383B4F90820236A56
:10408C00013B591E01FB02F1644A82FB0152551897
:10409C00CA17C2EBE522013200D10122934200D2B1
:1040AC001A46E2627BB1E269002122F81310013B4F
:1040BC00F8E759490A6810440860594A11680133F5
:1040CC00544A13608AE0E36900221A80636AE26A48
:1040DC009B1ADB03A362002BC0F28580DA13002A43
:1040EC00C0F283800023237104F11C06B4F908107C
:1040FC00226A013A531E03FB01F3484981FB035129
:10410C001944DB17C3EBE123013300D101239A429D
:10411C0000D31A46E262F268002A6BDBD513E3691E
:10412C0033F91510B3685B1B1D46002B67DBED03E1
:10413C00336995FBF3F52A44F260002A62DBD31352
:10414C007568AB4202D3A2EBC532F260B4F9103001
:10415C00B4F90E20934201DA01332382B4F9103002
:10416C009A4201DA013B2382B4F9102002FB01F2DE
:10417C002A4B83FB02531344D217C2EBE322821A5D
:10418C00B4F91830B4F91600834201DA01332383F1
:10419C00B4F91830984201DA013B2383B4F9183092
:1041AC0003FB01F31D4981FB0301CD18D917C1EBAA
:1041BC00E52102F30F0201F30F01606AE36923F8B2
:1041CC001020636A01336362226A93421FD0144B3E
:1041DC0019600023104A13600E4A136004F15C004E
:1041EC0001F0FFF970BDDA1379E7226A03EBC233F1
:1041FC00A36277E702F5FF437F33DD138FE7756822
:10420C001D4494E702F5FF437F33DB1398E700234B
:10421C006362DCE7A8010020A00100208100088077
:10422C00A401002038B501460B4B186803689C6844
:10423C000A4A53681268934209D003FB01F191FBBF
:10424C00F2F10133054D6B609A4200DA6A60A047C7
:10425C0001F090F838BD00BFB4010020AC01002083
:10426C0008B5002001F086F808BD0000002817DB17
:10427C0040F6FF739842A8BF184640F2FE7398426E
:10428C0010D9A0F2FF73B3F5006F1AD840F6CC40EA
:10429C0000FB03F0002811DBC01200F23330704732
:1042AC000020EAE740F2333303FB00F3064880FBBF
:1042BC000320C218D817C0EBA220704700F2FF7081
:1042CC00EAE70020704700BF0102108010B50446D9
:1042DC00114B1B6803EBD3735B1001FB03F10F4B0A
:1042EC0083FB0123C917C1EBA311006A0138002914
:1042FC000FDD81420BDC0139C1EB0131013891FB3F
:10430C00F0F000B2E080FFF7B1FF208110BD014654
:10431C00F1E70121EFE700BFFC5B0008D34D621011
:10432C0010B5044608B2E080FFF7A0FF208110BD55
:10433C0010B50446114B1B6803EBD3735B1001FBE8
:10434C0003F10F4B83FB0123C917C1EBA311406A87
:10435C00013800290FDD81420BDC0139C1EB013141
:10436C00013891FBF0F000B2E080FFF77FFF208175
:10437C0010BD0146F1E70121EFE700BFFC5B00082F
:10438C00D34D621010B5044608B2E080FFF76EFF03
:10439C00208110BD00281BDB40F6FF739842A8BF9C
:1043AC00184640F66423984214D9A0F6652240F2D0
:1043BC009A539A4219D840F6CC4303FB02F30C4AA9
:1043CC0082FB0312D817C0EB622000F23330704727
:1043DC000020E6E740F2333303FB00F3054A82FB8F
:1043EC000312D817C0EBA22070470020704700BF03
:1043FC007D2F675B4F6A836210B50446124B1B68B6
:10440C00002B1ADB9B1001FB03F1104B83FB0123E8
:10441C00C917C1EBA311206A0138002911DD8142B3
:10442C000DDC0139C1EB0131013891FBF0F000B228
:10443C00E080FFF7AFFF208110BD0333E2E70146B8
:10444C00EFE70121EDE700BFFC5B0008D34D6210E4
:10445C0010B5044608B2E080FFF79CFF208110BD28
:10446C0070B52C4B186803681B6B9847882001F0BB
:10447C0043F9044601230371274B03600025C580D3
:10448C002846FFF7F3FE2081A581E5812582A582D0
:10449C00E582258304F11C06E56142F234132362A4
:1044AC0015B1284601F01FF90025E56142F23413DD
:1044BC00736044F2682001F01BF9E0616562A5624B
:1044CC000123E36225636563A563E5632564656485
:1044DC00A564E56425656565A56504F15C06E5657F
:1044EC0025666566A566E56625676567A567E56764
:1044FC00C4F88050C4F88450084D294604F13000AB
:10450C0001F029F82946304601F025F8014B1C60D2
:10451C0070BD00BFB4010020A85A0008545B00080D
:10452C00F8B53A4B186803681B6B9847B42001F038
:10453C00E3F8044601230371354B03600025C58065
:10454C002846FFF727FF2081A581E5812582A582DA
:10455C00E582258304F11C06E5614FF4FA532362CE
:10456C0015B1284601F0BFF80025E5614FF4FA5368
:10457C0073604FF47A5001F0BBF8E0616562A5629C
:10458C000123E36225636563A563E56325646564C4
:10459C00A564E56425656565A56504F15C07E565BD
:1045AC0025666566A566E56625676567A567E567A3
:1045BC00C4F88050C4F8845004F18806C4F88850BC
:1045CC00C4F88C50C4F89050C4F89450C4F8985067
:1045DC00C4F89C50C4F8A050C4F8A450C4F8A85017
:1045EC00C4F8AC50C4F8B0500A4D294604F1300060
:1045FC0000F0B1FF2946384600F0ADFF06493046C1
:10460C0000F0A9FF014B1C60F8BD00BFB4010020F5
:10461C00E45A00086C5B00089C5B000870B5324BD8
:10462C00186803681B6B98479C2001F065F80446DA
:10463C00012020712D4B2360E080FFF717FE00B2A4
:10464C00208160810023E38123826382E3822383C0
:10465C00638304F12006236242F2D00363620020DC
:10466C0008B101F040F80025256242F2D0037360D6
:10467C0044F2A01001F03CF82062636AA362E56288
:10468C000123236328236363A363E56384F8405009
:10469C006564A564E56425656565A565E5652566C0
:1046AC006566A566E56604F1700625676567A5670E
:1046BC00E567C4F88050C4F88450C4F88850C4F836
:1046CC008C50C4F89050C4F89450C4F89850084DCD
:1046DC00294604F1440000F03EFF2946304600F024
:1046EC003AFF014B1C6070BDB4010020205B000838
:1046FC00845B000838B50446134B1B688BB12578D6
:10470C00114B18680368DB6A9847854208D02378F8
:10471C00012B10D02378062B10D02378022B10D02D
:10472C0038BD082000F0E8FF01230371074B03603C
:10473C00054B1860E3E7FFF793FEEBE7FFF7F0FE9E
:10474C00EBE7FFF76BFFEBE7B40100206C5A0008B6
:10475C0008B54FF6FF710120FFF7F0F908BD000016
:10476C002DE9F04188B00024049405940694079434
:10477C00364B9A6942F010029A619A6902F0100263
:10478C000092009A9A6942F020029A619A6902F0AA
:10479C0020020192019A9A6942F004029A619A6984
:1047AC0002F004020292029A9A6942F008029A619B
:1047BC009B6903F008030393039BDFF898800122A5
:1047CC004FF400514046FDF764F8214E012211468A
:1047DC003046FDF75EF822464FF480713046FDF707
:1047EC0058F84FF4005304930125059506940227BD
:1047FC00079704A94046FCF759FF4FF44043049334
:10480C000594069504A94046FCF750FF0495112326
:10481C0005930695079704A93046FCF747FF4FF41C
:10482C008073049305950694079704A93046FCF70A
:10483C003DFF4FF4806304930594069504A930461C
:10484C00FCF734FF08B0BDE8F08100BF0010024057
:10485C00000801400010014000B583B00A4B5A69B2
:10486C0042F001025A615B6903F001030193019B61
:10487C00002211460B20FCF7E7FB0B20FCF718FC81
:10488C0003B05DF804FB00BF0010024070B584B0AB
:10489C0000250195029503950C4C0D4B2360A560EA
:1048AC00257325754FF4C023E361656001262661ED
:1048BC002046FCF7B7FA082301930296039501A949
:1048CC002046FCF79DF804B070BD00BF58030020D3
:1048DC000024014070B584B000230193029303932C
:1048EC00164C174A22604FF48072A2602373012584
:1048FC002575A5614FF46022E26163600326266191
:10490C002046FCF78FFA019502950623039301A923
:10491C002046FCF775F8042301930223029301A9A6
:10492C002046FCF76DF8072301930296039301A927
:10493C002046FCF765F804B070BD00BFE80200200B
:10494C000028014030B58BB00024089409940194E0
:10495C00029403940494059406940794104D4FF01C
:10496C0080432B606C60AC601123EB602C61AC61FC
:10497C002846FDF78BFC50230893099408A9284678
:10498C00FDF7D2FD30230193029402230393059487
:10499C0004220DEB02012846FDF7DCFC0BB030BD08
:1049AC000C04002070B58AB000240894099401947A
:1049BC00029403940494059406940794144D154B97
:1049CC002B606C60AC60FF23EB602C61AC61284603
:1049DC00FDF775FC0894099408A92846FDF7A4FD79
:1049EC0060230193029403940426059622460DEB52
:1049FC0006012846FDF7DDFC32460DEB0601284684
:104A0C00FDF7D7FC284600F0E3F90AB070BD00BFF3
:104A1C00180300200004004008B50848084B036048
:104A2C004FF41653436000238360C36003610C2270
:104A3C0042618361C361FDF743FE08BD880300201A
:104A4C000038014030B595B000240C940D940F94AF
:104A5C001094059406940794089409940194029474
:104A6C000394049401220A924FF480330B930E9218
:104A7C000225119512934FF4E01313930AA8FCF737
:104A8C0025FF0F230593069507944FF48063089335
:104A9C000994294605A8FDF759F90195039401A835
:104AAC00FDF72EFA15B030BD08B5FBF7F3FDFFF797
:104ABC00C9FFFFF755FEFFF7CFFEFFF7E7FEFFF745
:104ACC0009FFFFF73FFFFFF76DFFFFF7A5FF00F0B2
:104ADC0033F8002008BD7047704730B587B00446E6
:104AEC000D46FCF7C5FC002302930495A37C0593AB
:104AFC0001A902A8FCF788FDFCF7D4FC07B030BD77
:104B0C0070B50D461646FCF7B3FC0024072C09DCE7
:104B1C0036F8022B002329460120FCF703FD023551
:104B2C000234F3E7FCF7BEFC70BD10B5044614214B
:104B3C0000F0E0FD204610BD00B583B00F4B1A7895
:104B4C000F4B1A70012402A800F8014DFFF7D2FD9B
:104B5C0000F028FAFEF70EF900F0FEFB00F0DCFB8B
:104B6C0000F02CFC22464FF480710648FCF791FEB5
:104B7C00054B1C70FEF7FEF8FCE700BF04F8FF1FA6
:104B8C0008000020000801409C02002010B4002303
:104B9C00048A9C4205DD0C78944205D0083101331F
:104BAC00F6E7002010BC70470846FBE710B504463A
:104BBC000B4B0360416093025818A060DB08238202
:104BCC00A2740B78FF2B07D0FF2261682046FFF7F9
:104BDC00DDFFE060204610BD6060A160F4E700BF1F
:104BEC00BC5B000838B5012800D038BD4FF6FF7308
:104BFC009942FAD1044D022204492846FFF7D6FF08
:104C0C00034B2B60F1E700BFB801002000F0000857
:104C1C00D45B000808B54FF6FF710120FFF7E2FFE7
:104C2C0008BD08B54FF6FF710020FFF7DBFF08BD8C
:104C3C0082B00E4B9A6942F001029A619A6902F0B5
:104C4C0001020092009ADA6942F08052DA61DB6963
:104C5C0003F080530193019B054A536823F0E063F2
:104C6C0043F00073536002B0704700BF0010024065
:104C7C000000014010B588B00023049305930693FF
:104C8C0007930368364A934204D0364A934242D083
:104C9C0008B010BD0446344B9A6942F400729A6114
:104CAC009A6902F400720092009A9A6942F0080222
:104CBC009A619B6903F008030193019B0123049300
:104CCC000323059304A92948FCF7F0FC2848294B39
:104CDC0003600023436083608023C3604FF48073C0
:104CEC0003614FF480634361202383614FF440538D
:104CFC00C361FCF717FA58B91D4B23625C620022A2
:104D0C0011461220FCF7A0F91220FCF7D1F9BFE7ED
:104D1C00FFF7E1FEF0E7144B9A6942F480629A6166
:104D2C009A6902F480620292029A9A6942F0040231
:104D3C009A619B6903F004030393039B92230493EE
:104D4C000323059304A90C48FCF7B0FC0022114680
:104D5C001220FCF779F91220FCF7AAF998E700BFAA
:104D6C00002401400028014000100240000C0140CA
:104D7C00C803002008000240000801400368B3F19A
:104D8C00804F00D0704782B003F50433DA6942F0EB
:104D9C000102DA61DB6903F001030193019B02B0AC
:104DAC00704700000268094B9A4200D0704782B0ED
:104DBC0003F50333DA6942F00202DA61DB6903F0CE
:104DCC0002030193019B02B0704700BF0004004036
:104DDC0000B587B0002302930393049305930268F4
:104DEC00124B9A4202D007B05DF804FB03F5033373
:104DFC009A6942F008029A619B6903F008030193D7
:104E0C00019B30230293022303930323059302A9EE
:104E1C000748FCF74BFC074A536823F4406343F004
:104E2C00E06343F400635360DDE700BF000400401F
:104E3C00000C01400000014000B587B00023029334
:104E4C000393049305930268164B9A4202D007B061
:104E5C005DF804FB03F558439A6942F480429A6169
:104E6C009A6902F480420092009A9A6942F0040214
:104E7C009A619B6903F004030193019B4FF4007347
:104E8C000293122303930323059302A90648FCF70C
:104E9C000DFC002202212520FCF7D6F82520FCF77A
:104EAC0007F9D4E700380140000801407047FEE7DD
:104EBC00FEE7FEE7FEE770477047704708B5FBF763
:104ECC00FBFB08BD08B50248FCF7E8F908BD00BFBC
:104EDC00C803002008B50348FBF7FEFC0248FBF7AB
:104EEC00FBFC08BD58030020E802002008B502486E
:104EFC00FDF7A6FC08BD00BF880300200120704709
:104F0C0008B500F053FC162303604FF0FF3008BDCA
:104F1C0008B54FF0FF31FFF7F3FFFEE708B5034686
:104F2C000B4A126842B10A4A106803446A4693421B
:104F3C0006D8074A136008BD054A06491160F2E716
:104F4C0000F034FC0C2303604FF0FF30F3E700BF9C
:104F5C00CC010020500400200F4B1A6842F00102D3
:104F6C001A6059680D4A0A405A601A6822F0847215
:104F7C0022F480321A601A6822F480221A605A686D
:104F8C0022F4FE025A604FF41F029A60044B4FF059
:104F9C0000629A60704700BF001002400000FFF8EA
:104FAC0000ED00E008B50F4B1B6803B108BD0E4BBC
:104FBC0018690E4B98420ED8400000F099FB094B33
:104FCC0018600948FBF7B6FF40B90748FBF7B4FD7A
:104FDC000128FAD1EAE74FF0FF30EEE7FFF77BFD4F
:104FEC00F3E700BFD0010020E8020020FCFFFF3FE8
:104FFC00104B1B68EBB110B5002407E00E48FBF713
:10500C0039FC0C4B1B6823F8140001340A4B1B6948
:10501C00A3420DDD0848FBF7D1FD0028F5D10A218C
:10502C000548FBF76FFB0028E8D0FFF754FDE5E7D8
:10503C0010BD7047D0010020E8020020024B1B6815
:10504C0033F91000704700BFD0010020014B1869E4
:10505C00704700BFE802002008B501224FF4005150
:10506C004948FCF716FC494B18885A8810449A8812
:10507C001044DA8810441A8910445A8910449A89C9
:10508C001044DA8910441A8A10445A8A10449A8AB5
:10509C001044DA8A10441A8B10445A8B10449A8BA1
:1050AC001044DA8B10441A8C10445A8C10449A8C8D
:1050BC001044DA8C10441A8D10445A8D10449A8D79
:1050CC001044DA8D10441A8E10445A8E10449A8E65
:1050DC001044DA8E10441A8F10445A8F10449A8F51
:1050EC001044DA8F1044B3F840201044B3F8422037
:1050FC001044B3F844201044B3F846201044B3F8DD
:10510C0048201044B3F84A201044B3F84C20104403
:10511C00B3F84E201044B3F850201044B3F852208A
:10512C001044B3F854201044B3F856201044B3F88C
:10513C0058201044B3F85A201044B3F85C201044A3
:10514C00B3F85E201044B3F860201044B3F862301A
:10515C00184400EB001000EB00200D4BA3FB0030BB
:10516C00C0F34F30A0F500400A4B1B7843B9FFF752
:10517C0077F800224FF400510348FCF78AFB08BD76
:10518C00FFF750F8F5E700BF00100140D4010020F4
:10519C00CD33A3999C02002008B501224FF4005195
:1051AC005948FCF776FB594BB3F86400B3F866200A
:1051BC001044B3F868201044B3F86A201044B3F8D4
:1051CC006C201044B3F86E201044B3F870201044D7
:1051DC00B3F872201044B3F874201044B3F876205E
:1051EC001044B3F878201044B3F87A201044B3F884
:1051FC007C201044B3F87E201044B3F88020104477
:10520C00B3F882201044B3F884201044B3F88620FD
:10521C001044B3F888201044B3F88A201044B3F833
:10522C008C201044B3F88E201044B3F89020104416
:10523C00B3F892201044B3F894201044B3F896209D
:10524C001044B3F898201044B3F89A201044B3F8E3
:10525C009C201044B3F89E201044B3F8A0201044B6
:10526C00B3F8A2201044B3F8A4201044B3F8A6203D
:10527C001044B3F8A8201044B3F8AA201044B3F893
:10528C00AC201044B3F8AE201044B3F8B020104456
:10529C00B3F8B2201044B3F8B4201044B3F8B620DD
:1052AC001044B3F8B8201044B3F8BA201044B3F843
:1052BC00BC201044B3F8BE201044B3F8C0201044F6
:1052CC00B3F8C2201044B3F8C4201044B3F8C6306D
:1052DC00184400EB001000EB00200D4BA3FB00303A
:1052EC00C0F34F30A0F500400A4B1B7843B9FEF7D2
:1052FC00B7FF00224FF400510348FCF7CAFA08BD6F
:10530C00FEF790FFF5E700BF00100140D40100202C
:10531C00CD33A3999C02002008B50C48FBF70AFE7C
:10532C0058B964220A490948FBF7BEFC40B904216C
:10533C000848FDF7BDF830B908BDFFF7CCFBF0E726
:10534C00FFF7C9FBF3E7FFF7C6FBF5E758030020AF
:10535C00D40100200C04002010B5054C002120467F
:10536C00FDF7C4F804212046FDF7C0F810BD00BFBE
:10537C001803002000F30F0000F50040034B1B68DE
:10538C00C2B25A63C0F30720986370471803002019
:10539C00012800D070474FF6FF739942FAD1044BA5
:1053AC0000221A70FF2159709A70DA709A80F1E716
:1053BC00B0020020704770477047704708B5012253
:1053CC0002490348FDF7B1F908BD00BF9E02002059
:1053DC008803002008B5264B1B7803B908BD244868
:1053EC00FEF7B8F9D8B1224B9B78013B222B16D88B
:1053FC00DFE803F0121E15152226151515151515C7
:10540C001515151515151515151515151515151540
:10541C00152A2E3215363A001548FEF703FA144BAE
:10542C0000221A70FF2159709A70DA709A80D5E7B1
:10543C000F48FEF797FAF2E70D48FEF7BDF9EEE7D5
:10544C000B48FEF737FAEAE70948FEF79FF9E6E75B
:10545C000748FFF7AFFFE2E70548FFF7ACFFDEE7D1
:10546C000348FFF7A9FFDAE70148FFF7A6FFD6E7E5
:10547C00B002002008B5FFF7ADFF08BD08B5FBF77B
:10548C0027F91B4B1B78BBB91A4B1B68C31A632B30
:10549C000FD9184B186016490A78531CDBB20B70E5
:1054AC001549087815498854062B0ED0FFF786FF4E
:1054BC0008BDFFF783FFFBE70E4B1B68C31A142BC9
:1054CC00E7D90B4B00221A70E3E70023052B05DC10
:1054DC000A4AD15C0A4AD1540133F7E7094B1B78CD
:1054EC001BB1034B00221A70E0E7FFF773FFF8E7DC
:1054FC00AC020020A80200209E020020A002002086
:10550C00B00200209D02002008B5FFF7B7FF08BDD0
:10551C007047704708B503680A4A93420ED002F5EB
:10552C007042934204D0A2F57442934203D008BD5A
:10553C00FFF7EAFFFBE7FFF7EBFFF8E7FFF7E9FF01
:10554C00F5E700BF0048004008B54FF6FF71012099
:10555C00FFF71EFF08BD38B505460C460968E06824
:10556C00FAF7B0FF4FF08E41FAF7F8FE00F0F2F8C0
:10557C00FBF744F8286021682069FAF7A3FF4FF085
:10558C008E41FAF7EBFE00F0E5F8FBF737F86860B0
:10559C0021686069FAF796FF4FF08E41FAF7DEFE4C
:1055AC0000F0D8F8FBF72AF8A86021686068FAF7D1
:1055BC0089FF4FF08E41FAF7D1FE00F0CBF8FBF7E4
:1055CC001DF8E8602168A068FAF77CFF4FF08E4167
:1055DC00FAF7C4FE00F0BEF8FBF710F82861284675
:1055EC0038BD2DE9F04F04684268D717D0F818E0A1
:1055FC004FEAEE7902FB09F50EFB0755A2FB0E23D1
:10560C002B444FEAD23C4CEA434C01FB04C4826865
:10561C004FEAE279C3694FEAE37B02FB0BF503FB2C
:10562C000955A2FB03232B444FEAD23C4CEA434CD2
:10563C006444C2684FEAE27B076A4FEAE77902FBEF
:10564C0009F507FB0B55A2FB07232B444FEAD23C71
:10565C004CEA434CA44405694FEAE57B446A4FEAA3
:10566C00E47905FB09F204FB0B23A5FB04451D445F
:10567C00E30B43EA454363448362C0F81CE0C9036F
:10568C00816147625A420262002B02DBD813BDE8EB
:10569C00F08F03F5FF437F33D813F8E7002103E0C5
:1056AC000B4B5B58435004310A480B4B42189A423F
:1056BC00F6D30A4A02E0002342F8043B084B9A4214
:1056CC00F9D3FFF749FC00F077F8FFF7EDF97047D5
:1056DC001C5C0008000000207800002078000020EE
:1056EC0050040020FEE700F021B808B500F02CF8BB
:1056FC0000F002B800F01AB810B5002814BF044628
:10570C000124204600F07CF830B900F007F808B905
:10571C0000F044F88047F4E710BD0000024B186815
:10572C00BFF35B8F704700BFB802002000F070B869
:10573C0008B5804700F032F8024B1868BFF35B8F56
:10574C00704700BF1000002008B5FFF7F5FFFFF70A
:10575C00EFFF0000C0F3C7537F3B162B10B501467B
:10576C0014DC002B07DA013300F0004101D141F0C9
:10577C007E51084610BD084A1A411042F9D04FF428
:10578C0080011941014421EA0201F2E7802BF0D19A
:10579C00FAF7DCFC0146ECE7FFFF7F0008B50620BA
:1057AC0000F01CF90120FFF7B3FB0000014B186857
:1057BC00704700BF1400002070B500250C4E0D4C36
:1057CC00A41BA410A54209D100F026F900250A4E0D
:1057DC000A4CA41BA410A54205D170BD56F8253067
:1057EC0098470135EEE756F8253098470135F2E732
:1057FC00005C0008005C0008005C0008145C0008F9
:10580C00024B0146186800F057B800BF1400002086
:10581C00024B0146186800F003B800BF14000020CA
:10582C0038B50546002943D051F8043C0C1F002B19
:10583C00B8BFE41800F0EEF81E4A1368104633B9EE
:10584C00636014602846BDE8384000F0E4B8A34219
:10585C000BD921686218934201BF1A685B68521811
:10586C00226063600460EDE713465A680AB1A242F5
:10587C00FAD919685818A0420BD12068014458185D
:10588C0082421960DED110685268014419605A6076
:10589C00D8E702D90C232B60D4E7206821188A4260
:1058AC0001BF116852680918216062605C60C9E729
:1058BC0038BD00BFBC02002070B5CD1C25F003051F
:1058CC0008350C2D38BF0C25002D064601DBA942EE
:1058DC0003D90C233360002070BD00F09BF8214AE3
:1058EC001468214691B9204C23681BB9304600F04E
:1058FC003DF820602946304600F038F8431C24D18E
:10590C000C233046336000F086F8E4E70B685B1B31
:10591C0018D40B2B0FD90B60CC18CD50304600F09F
:10592C007AF804F10B00231D20F00700C31AD3D022
:10593C005A42E250D0E74B688C4216BF636013604A
:10594C000C46EBE70C464968CCE7C41C24F0030476
:10595C00A04205D0211A304600F008F80130CFD013
:10596C002560DBE7BC020020C002002038B5002314
:10597C00054C054608462360FFF7D0FA431C02D1BC
:10598C00236803B12B6038BD4C0400201F2938B5A7
:10599C0004460D4604D9162303604FF0FF3038BD82
:1059AC00426C12B152F821304BB9204600F030F85D
:1059BC002A4601462046BDE8384000F017B8012BB6
:1059CC000AD0591C03D1162303600120E7E70024F9
:1059DC00284642F8254098470020E0E7024B014654
:1059EC001868FFF7D3BF00BF1400002038B50023A0
:1059FC00064C0546084611462360FFF781FA431C06
:105A0C0002D1236803B12B6038BD00BF4C040020C9
:105A1C00FFF774BA70477047F8B500BFF8BC08BC04
:105A2C009E467047F8B500BFF8BC08BC9E46704750
:105A3C0002030405060708090A0B0C0D0E0F1010C3
:105A4C000102000002030405060708090A0B0C0DED
:105A5C000E0F1010010200000000000000000000FA
:105A6C00453B0008693B0008DB390008DF390008BA
:105A7C00E1390008E5390008E7390008EB3900087E
:105A8C00ED390008F1390008F3390008F73900083E
:105A9C00D13900080000000000000000AD3F0008F4
:105AAC00C53F000855400008053A00080D3A0008AB
:105ABC00133A00081B3A00082D430008213A00084D
:105ACC00D9420008293A0008653A0008FB39000859
